:020000040800F2
:10000000D821002021020008F5220008CD1E00089A
:100010008122000841050008BB2E000800000000F6
:10002000000000000000000000000000890100083E
:100030004305000800000000CD010008CF2700089C
:100040003B0200083B0200083B0200083B0200089C
:100050003B0200083B0200083B0200083B0200088C
:100060003B0200083B0200083B0200083B0200087C
:100070003B0200083B0200083B0200083B0200086C
:100080003B0200083B0200083B0200083B0200085C
:100090003B0200083B0200083B0200083B0200084C
:1000A0003B020008652800083B0200083B020008EC
:1000B0003B0200083B020008712800083B020008D0
:1000C0003B0200083B0200083B0200083B0200081C
:1000D0003B0200083B0200083B0200083B0200080C
:1000E0003B0200083B0200083B02000800F002F857
:1000F00000F03AF80AA090E8000C82448344AAF188
:100100000107DA4501D100F02FF8AFF2090EBAE885
:100110000F0013F0010F18BFFB1A43F0010318473B
:100120000857000028570000103A24BF78C878C14B
:10013000FAD8520724BF30C830C144BF04680C60ED
:10014000704700000023002400250026103A28BF35
:1001500078C1FBD8520728BF30C148BF0B60704739
:100160001FB51FBD10B510BD00F045F91146FFF7D2
:10017000F7FF02F0C1FE00F063F903B4FFF7F2FFEE
:1001800003BC00F06BF90000224B19680868B0E866
:10019000F00F80F30988BFF36F8F4FF0000080F3FA
:1001A00011884EF00D0E70470000000006480068F0
:1001B000006880F3088862B661B6BFF34F8FBFF363
:1001C0006F8F00DF00BF00BF08ED00E0EFF3098094
:1001D000BFF36F8F0F4B1A6820E9F00F106008B55E
:1001E0004FF0500080F31188BFF34F8FBFF36F8F34
:1001F00003F050FD4FF0000080F31188BDE8084087
:1002000019680868B0E8F00F80F30988BFF36F8FB2
:10021000704700BF44000020EFF3058070470000E6
:100220000948804709480047FEE7FEE7FEE7FEE78A
:10023000FEE7FEE7FEE7FEE7FEE7FEE704480549C6
:10024000054A064B7047000061280008ED000008D1
:10025000D81B0020D8210020D81D0020D81D002048
:10026000032A40F2308010F0030C00F0158011F8E2
:10027000013BBCF1020F624498BF11F801CB00F8BA
:10028000013B38BF11F8013BA2F1040298BF00F80E
:1002900001CB38BF00F8013B11F0030300F02580CB
:1002A000083AC0F0088051F8043B083A51F804CBF2
:1002B000A0E80810F5E7121D5CBF51F8043B40F8B8
:1002C000043BAFF30080D20724BF11F8013B11F8C3
:1002D00001CB48BF11F8012B24BF00F8013B00F807
:1002E00001CB48BF00F8012B704710B5203AC0F091
:1002F0000B80B1E81850203AA0E81850B1E8185027
:10030000A0E81850BFF4F5AF5FEA027C24BFB1E863
:100310001850A0E8185044BF18C918C0BDE81040D4
:100320005FEA827C24BF51F8043B40F8043B08BFDD
:100330007047D20728BF31F8023B48BF11F8012BA4
:1003400028BF20F8023B48BF00F8012B704702F09D
:10035000FF0343EA032242EA024200F02CB84FF0C6
:10036000000200B5134694469646203922BFA0E805
:100370000C50A0E80C50B1F12001BFF4F7AF090711
:1003800028BFA0E80C5048BF0CC05DF804EB890002
:1003900028BF40F8042B08BF704748BF20F8022B45
:1003A00011F0804F18BF00F8012B7047704770475D
:1003B00070474FF000020429C0F0128010F0030CC7
:1003C0003FF4CFAFCCF1040CBCF1020F18BF00F822
:1003D000012BA8BF20F8022BA1EB0C01FFF7C1BF36
:1003E0005FEAC17C24BF00F8012B00F8012B48BF55
:1003F00000F8012B7047754600F02CF8AE4605005A
:100400006946534620F00700854618B020B5FFF72F
:1004100015FFBDE820404FF000064FF000074FF0F9
:1004200000084FF0000B21F00701AC46ACE8C00912
:10043000ACE8C009ACE8C009ACE8C0098D4670471B
:1004400010B50446AFF300802046BDE81040FFF72A
:1004500094BE000000487047741B0020014918201A
:10046000ABBEFEE7260002007047000070B50446F0
:1004700000688168C943C90717D1816821F001016B
:10048000816000F03FFC05460AE000BF00F03AFC46
:10049000401B022804D920688068C043C00706D0EA
:1004A00020688068C043C007F0D0002070BDA06AFB
:1004B00040F01000A062E06A40F00100E06201201C
:1004C00070BD0000F8B500260446009600688168FB
:1004D000C943C9072DD0816841F0010181601648E8
:1004E00016490068B0FBF1F000E0401E00900028C3
:1004F000FBD100F007FC054616E000BF00F002FC4F
:10050000401B022810D920688068C043C0070BD068
:10051000A06A40F01000A062E06A40F00100E062D2
:1005200084F824600120F8BD20688068C043C007BB
:10053000E4D10020F8BD00004000002040420F0040
:10054000FEE7704772B6FEE70FB410B502A800F0E0
:100550007FFA642102A800F0DDF918B1002010BC78
:100560005DF814FB02A800F0FFF880B2F7E7000086
:100570000148006800B270472404004000B5FFF74E
:10058000F7FF03490A880880821A12B2104600BD9C
:10059000D4000020F8B500250446009590F824000A
:1005A00001280BD0012084F824002046FFF75EFFCD
:1005B0002046FFF787FF060002D050E00220F8BD7A
:1005C000A06A20F4885040F00200A062022000F0EF
:1005D00063FC25490968B1FBF0F0400000E0401ED3
:1005E00000900028FBD12068816841F008018160FB
:1005F00000F088FB074608E000F084FBC01B0A28D7
:1006000003D920688068000715D420688068000737
:10061000F2D42068816841F00401816000F072FB2F
:10062000074612E000F06EFBC01B0A280DD92068B7
:100630008068400709D5A06A20F0020040F0100051
:10064000A06284F824500120F8BD2068806840072B
:10065000E8D4A06A20F0020040F00100A06284F813
:1006600024503046F8BD000040000020F8B50024BA
:10067000009490F824202546012A12D0012280F807
:1006800024204A681F23072A0DD20668776B521E62
:1006900002EB820293409F430B6893401F437763B2
:1006A00019E00220F8BD06680D2A0AD2376BD21F66
:1006B00002EB820293409F430B6893401F433763D2
:1006C00009E0F76A0D3A02EB820293409F430B6800
:1006D00093401F43F7620A68072306680A2A0AD371
:1006E000F7680A3A02EB420293409F438B689340BB
:1006F0001F43F76008E0376902EB420293409F43D3
:100700008B6893401F4337610A68102A01D0112A71
:1007100020D1124B02689A4217D193681B0219D458
:10072000936843F4000393600968102912D10C49BF
:100730000C4A0968B1FBF2F101EB8101490000E0CC
:10074000491E00910029FBD104E0816A41F020019B
:100750008162012480F824502046F8BD0024014025
:100760004000002040420F000068C06C704700004D
:100770002DE9F0414FF0000704003D467ED0A06A0D
:10078000002628B9E66284F82460204600F07EF84E
:100790002046FFF76BFEA16AC90600D420B1A06A0B
:1007A00040F01000A06269E0A16A21F4885141F094
:1007B0000201A1626268E169237B0A4347EA4301BF
:1007C0000A43A1684FF48077B94209D0012907D0C4
:1007D0005FF0000194F814C0BCF1010F02D00AE0F0
:1007E0003946F7E7F3B1A36A43F02003A362E36A53
:1007F00043F00103E3622368D3F804C02CF4694C8E
:100800004CEA010CC3F804C021688B68DFF870C0A3
:1008100003EA0C0313438B60A168B9420BD0012992
:1008200009D00CE0DFF85CC0A3690CEB43330B4349
:1008300043F40061DFE7218A0D05A5F580152168E5
:10084000CB6A23F470032B43CB62216889680E4B7B
:100850001940914208D1E662A16A21F0020141F0FB
:100860000101A162BDE8F081A06A20F0020040F021
:100870001000A062E06A40F00100E0620120F1E7B0
:10088000FDF7E1FF00E0FFFFFE0E1FFF10B586B091
:10089000002100910191029103911A4C03681A49B9
:1008A00003221A48A34211D18B6943F400738B6170
:1008B0008B6903F4007304938B6943F004038B6129
:1008C000896901F004010491022113E0104CA34254
:1008D00015D18B6943F480638B618B6903F480636A
:1008E00004938B6943F004038B61896901F004016F
:1008F00004910421CDE90012694600F009F906B01F
:1009000010BD00000024014000100240000801401A
:10091000002801402DE9F84300270D4604460097C2
:1009200000F0F0F9804620688168C90508D5A06A02
:1009300040F02000A06284F824700120BDE8F88314
:100940004168C90503D4C06A10F4700F2AD0022090
:1009500000F0A2FA3B490968B1FBF0F62068036990
:1009600039490B424FEA61014FEAA1121FD1C36816
:100970004FEA611C13EA0C0F19D103690B4225D110
:10098000C068104222D1142023E0681C0AD02DB187
:1009900000F0B8F9A0EB0800A84203D9206800686D
:1009A000800725D5206800688007EED52DE0036913
:1009B0000B4202D1C168114206D0026923490A42A2
:1009C00006D1C068084203D1542002E0292000E08B
:1009D000FC204643009816E0681C11D02DB100F0B1
:1009E00091F9A0EB0800A8420AD90098B04207D2BA
:1009F000A06A40F00400A06284F8247003209DE700
:100A00000098401C0090B042E6D321686FF01200BD
:100A10000860A06A40F40070A06220688068C0F39B
:100A2000424007280CD1207B50B9A06A20F4807086
:100A3000A062A06AC00403D4A06A40F00100A062D2
:100A400000207BE7400000202449922449922400A2
:100A500070B5044690F8240001280DD0012084F8D8
:100A600024002046FFF72EFD02004FF0000005D0C5
:100A700084F82400104670BD022070BDA16A40F2C7
:100A80000123994341F48071A1621F4D23681F49DE
:100A9000AB4218D10E6816F4702F14D0A66A46F433
:100AA0008016A6620E68760505D5A66A26F400565D
:100AB00046F48056A662A66AF6040AD5E66A26F0CF
:100AC0000606E66206E0A66A26F48016A6625E685E
:100AD000E9E7E06284F824006FF002001860206803
:100AE0008368C3F34243072B05D1A84208D10968A4
:100AF00011F4702F04D0816841F480118160B9E74E
:100B0000816841F4A001F9E7002801400424014074
:100B10002DE9F84FDFF8B8910024A9F1040B234622
:100B20000F2709F1040AABF1040EC9E00125A54025
:100B30002A40AA427DD1674ED1F804C0ACEB06082A
:100B4000B44532D014DCBCF1030F3AD009DCBCF15F
:100B5000000F2AD0BCF1010F1CD0BCF1020F31D123
:100B60001DE0BCF1110F17D0BCF1120F2AD119E012
:100B7000B8F5881F19D006DCB8F5803F15D0B8F558
:100B8000801F1FD111E0B8F5001F0ED0B8F5041F6B
:100B900018D10AE0CB6815E0CB681B1D12E0CB68CA
:100BA00008330FE0CB680C330CE08B682BB1012BC2
:100BB0004FF0080303D0456104E0042302E005611F
:100BC00000E00023FF2A01D8064601E000F10406F8
:100BD0004FEA840501D9A5F12005D6F8008007FA6F
:100BE00005FC28EA0C0803FA05F548EA0508C6F8EA
:100BF00000804D68ED0062D5374DAE6946F00106C4
:100C0000AE61AD6924F0030605F001050095334D92
:100C100006EB050CDCF80850A607360F07FA06F8B5
:100C200025EA0805DFF8B880404503D14FF00008F9
:100C300017E044E0DFF8AC80404502D14FF00108F6
:100C40000FE0DFF8A480404502D14FF0020808E031
:100C5000DFF89880404502D14FF0030801E04FF0E3
:100C6000040808FA06F848EA0508CCF808804D6838
:100C7000D9F80060ED024D4601D5164300E09643D9
:100C80002E604D68DAF80060AD02554601D5164376
:100C900000E096432E604D68DBF80060AD035D46D2
:100CA00001D5164300E096432E604D68DEF80060E3
:100CB000ED03754601D5164300E096432E60641C93
:100CC0000D682A46E5407FF431AFBDE8F88F00009B
:100CD0000804014000001110001002400000014013
:100CE00000080140000C01400010014000140140C8
:100CF0008068084000D0012070470AB10161704748
:100D00000904FBE7014880687047000034000020B8
:100D100002488168027811448160704734000020E5
:100D2000074810B5016841F010010160032000F090
:100D3000A1F80F2000F006F800F04AF8002010BDDE
:100D40000020024030B505461C4887B0816941F457
:100D500000618161806906A900F40060009001A82B
:100D600000F0F8F900F026FA1549164AB0FBF1F147
:100D70001548491E0260416040F2E7320021C0E997
:100D800003218160816100F011FC040012D10E4842
:100D900000F062FC04000DD1192000F03DF8102D88
:100DA00007D200222946192000F044F807480560C0
:100DB00000E0012407B0204630BD000000100240D2
:100DC00040420F00002C0140580200203800002053
:100DD0000F4808B5816941F001018161816901F025
:100DE00001010091C16941F08051C161C0690022D7
:100DF00000F0805000900F21901E00F01BF8054875
:100E0000416821F0E06141F00071416008BD0000DF
:100E10000010024000000140002809DB00F01F0222
:100E2000012191404009800000F1E020C0F800114C
:100E300070470000F0B40E4B1B680C46C3F302234E
:100E4000C3F10705042D00D90425191D072901D276
:100E5000002300E0DB1E012606FA05F1491E2140B1
:100E600099409E40761E16403143F0BC02F026B8F1
:100E70000CED00E0064900F0070208684FF6FF039A
:100E8000184040EA0220034A1043086070470000FF
:100E90000CED00E00000FA0510B501460020234CDF
:100EA000012922D0022939D010291DD16168226878
:100EB000D20119D51E48C1F38342C903805C0AD50B
:100EC00061681B4AC1F34041921E515C194AB2FB52
:100ED000F1F1484301E0184948436168490203D4ED
:100EE00040000321B0FBF1F010BD226AC2F30121E2
:100EF000012903D1920701D5C80310BD022905D1EC
:100F0000626A920702D549F6404010BD0329FCD120
:100F100021688903F9D54FF2244010BD00F04AF949
:100F20006168C1F38131491C4900DBE700100240D0
:100F30000052000800127A0000093D002DE9F84334
:100F400005460078354CC00754D0E0690026C00043
:100F500008D4E06940F08050E061E069012600F0CB
:100F6000805000902E480168C90512D4016880465F
:100F700041F480710160FFF7C5FE074605E000BF40
:100F8000FFF7C0FEC01B642823D8D8F80000C005B6
:100F9000F6D5206A10F4407021D0A98801F4407180
:100FA00081421CD0206A1F49012220F440700A604F
:100FB00000220A602062C00711D0FFF7A3FE074697
:100FC00041F2883808E000BFFFF79CFEC11B414595
:100FD00002D90320BDE8F883206A8007F4D5206A8F
:100FE000696820F44070084320621EB1E06920F077
:100FF0008050E0612878800705D56068A96820F4F2
:101000004040084360602878C00605D56068E968FC
:1010100020F48000084360600020DBE700100240FD
:1010200000700040400442422DE9F0470F460500A1
:1010300061D0434E306800F00700B84209D23068F2
:1010400020F0070038433060306800F00700B842F5
:1010500051D128683B4C810712D5400703D5606801
:1010600040F4E06060602878000703D5606840F4D1
:10107000605060606068A96820F0F000084360601C
:101080002878C00728D06868012810D02168022875
:1010900010D0890700292EDA616821F0030101438D
:1010A0006160FFF72FFE804641F288390DE021682C
:1010B0008903EFE78901EDE7FFF724FEA0EB0801C4
:1010C000494502D90320BDE8F0876068696800F0EF
:1010D0000C00B0EB810FEFD1306800F00700B84290
:1010E0000BD9306820F0070038433060306800F0DA
:1010F0000700B84201D00120E5E72878400705D570
:101100006068E96820F4E0600843606028780007C0
:1011100006D56068296920F4605040EAC10060602B
:1011200000F058F86168084AC1F30311515CC840E7
:101130000649086006480068FFF704FE0020C2E781
:101140000020024000100240105200084000002021
:10115000380000200F2202600C4A536803F003039A
:101160004360536803F0F0038360536803F4E06363
:10117000C36052684FF4E06303EAD202026104489C
:10118000006800F00700086070470000001002408F
:10119000002002400448054900684968044AC1F338
:1011A0000221515CC84070474000002000100240FE
:1011B000205200080448054900684968044AC1F300
:1011C000C221515CC840704740000020001002401E
:1011D000205200080E4A51680E4801F00C03042BFF
:1011E00011D0082B0FD10C48C1F38343C903C05C55
:1011F0000AD55168084AC1F34041921E515C054A24
:101200005043B0FBF1F07047044948437047000079
:101210000010024000127A00EE51000800093D0063
:101220002DE9F84F040070D02078C04DC00749D098
:101230006868C0F38100012807D06868C0F38100A6
:10124000022809D16868C00306D52868800339D50B
:1012500060680028E7D035E06068B0F5803F0BD0CB
:1012600010B1B0F5A02F11D0286820F4803028608C
:10127000286820F4802002E0286840F4803028604C
:10128000606890B1FFF73EFD06460AE0286840F42A
:1012900080202860F0E700BFFFF734FD801B642842
:1012A00073D828688003F7D50CE0FFF72BFD0646BE
:1012B00005E000BFFFF726FD801B6428F0D82868F2
:1012C0008003F7D420789A4E80074FF001094FF041
:1012D000000839D5686810F00C0F07D06868C0F3B3
:1012E0008100022809D16868C00306D428688007F5
:1012F00014D52069012808D110E02069B0B1C6F8E2
:101300000090FFF7FFFC074605E00AE1FFF7FAFC53
:10131000C01B0228C4D828688007F7D528686169EF
:1013200020F0F80040EAC10028600DE0C6F8008017
:10133000FFF7E8FC074604E0FFF7E4FCC01B0228C7
:1013400023D828688007F7D4207800072CD579485F
:10135000A169D9B1C0F80090FFF7D4FC074604E0BA
:10136000FFF7D0FCC01B02280FD8686A8007F7D5AA
:1013700071484FF4FA510068B0FBF1F0009000BFE3
:101380000098411E0091FAD20EE080E0C0F8008083
:10139000FFF7B8FC074604E0FFF7B4FCC01B0228C7
:1013A00075D8686A8007F7D42078400760D5E86967
:1013B0000027C00008D4E86940F08050E861E8697F
:1013C000012700F0805000905C480168C90513D4E3
:1013D0000168834641F480710160FFF793FC824607
:1013E00006E000BFFFF78EFCA0EB0A0064284ED891
:1013F000DBF80000C005F5D5E06801280AD008B187
:10140000052813D0286A20F001002862286A20F0FD
:10141000040002E0286A40F001002862E06841F21E
:10142000883B98B1FFF76EFC82460BE0286A40F0DB
:1014300004002862EEE700BFFFF764FCA0EB0A019E
:1014400059455AD8286A8007F6D50CE0FFF75AFCB0
:10145000824605E0FFF756FCA0EB0A0159454CD83F
:10146000286A8007F6D41FB1E86920F08050E8614F
:10147000E06988B36968C1F38101022944D0022878
:10148000C6F8608004D0FFF73DFC044638E034E045
:10149000FFF738FC074604E0FFF734FCC01B0228C6
:1014A0002BD828688001F7D4206AB0F5803F05D199
:1014B0006868A16820F4003008436860D4E9080136
:1014C0000843696821F4741108436860C6F86090A5
:1014D000FFF718FC044606E025E000BFFFF712FC0A
:1014E000001B022809D828688001F7D51BE000BF3F
:1014F000FFF708FC001B022802D90320BDE8F88F83
:1015000028688001F4D40EE00128F7D06868226AC8
:1015100000F48031914204D1616A00F47010884275
:1015200001D00120EAE70020E8E7000000100240B7
:10153000000042428004424240000020007000400F
:101540007047704770B590F83C20012A26D00124DE
:1015500080F83C40022280F83D2003685A689D686C
:1015600022F070060A6832435A600D4B02689A42B4
:1015700008D0B2F1804F05D00A4B9A4202D00A4BF4
:101580009A4204D1496825F080031943916080F89C
:101590003D40002180F83C10084670BD022070BD1F
:1015A000002C0140000400400008004010B5040079
:1015B00003D094F83D0010B107E0012010BD0020D9
:1015C00084F83C00204600F01FF8022084F83D001B
:1015D000211D206801F052F9012084F8460084F8AA
:1015E0003E0084F83F0084F8400084F8410084F80D
:1015F000420084F8430084F8440084F8450084F8ED
:101600003D00002010BD000008B501681048B1F190
:10161000804F14D00F4A914219D1C16941F00401A1
:10162000C161C069002200F00400009005211E2065
:10163000FFF700FCBDE808401E20FFF7EDBBC169C5
:1016400041F00101C161C06900F00100009008BDD6
:10165000001002400008004090F83D10012901D020
:1016600001207047022180F83D100168CA6842F0ED
:101670000102CA6000680B49884208D0B0F1804F6F
:1016800005D00949884202D00849884204D18168BE
:1016900001F00701062903D0016841F00101016052
:1016A00000207047002C014000040040000800406A
:1016B00070B5044690F83C000025012817D001269B
:1016C00084F83C60022084F83D002068826822F0A3
:1016D000770222F47F4282600868502838D00DDCFF
:1016E00020284FD005DC90B3102811D14AE0022009
:1016F00070BD302846D040280AD13BE060282FD06A
:1017000070280DD0B0F5805F03D0B0F5005F12D027
:10171000012584F83D60002084F83C00284670BD17
:10172000CB68D1E90121206801F0F1F820688168D7
:1017300041F0770109E0CB68D1E90121206801F08F
:10174000E6F82068816841F480418160E1E719E0B2
:10175000CA684968206801F08FF95021206806E0C6
:10176000CA684968206801F098F96021206801F092
:10177000D8F8CEE7CA684968206801F07DF94021B1
:101780002068F4E7226801461046F0E72DE9F041B1
:101790000D46040003D094F83D0018B108E0012084
:1017A000BDE8F081002084F83C00204600F040F8BD
:1017B000022084F83D002068816844F207029143CA
:1017C0008160211D206801F059F8226890689169B4
:1017D000166A2B68AF69034340F20330814341EA44
:1017E0000721A868EF6908434FF6FC418843E96880
:1017F00040EA0720014328692F6A000140EA0730C8
:10180000084369686D6926F0220646EA05152943F2
:1018100093602268906154F8460B0162012004F83D
:101820001F09E0752076E0762077A0750020B7E7E5
:1018300000B585B0002100910191029103910068EB
:101840000D49884216D10D48C16941F00201C161BC
:10185000C16901F002010491816941F004018161D3
:101860008069694600F004000490C020009004489C
:10187000FFF74EF905B000BD000400400010024023
:101880000008014070B590F83E60044690F83F5063
:1018900090F8423090F84320022021B104290ED064
:1018A000012E1BD114E0012E18D1012B16D184F882
:1018B0003E0084F8420001220021206820E0012D32
:1018C0000CD1012A0AD184F83F0084F8430014E0C7
:1018D000012D03D1012B01D1012A01D0012070BDBE
:1018E00084F83E0084F83F0084F8420084F8430006
:1018F00001220021206800F0FDFF01220421206860
:1019000000F0F8FF2068016841F00101016000204B
:1019100070BD70472DE9F04104460068C66805694E
:101920004FF00007A90713D5B10711D5F91E0161C2
:1019300001202077206880698007204602D0FFF7C9
:10194000E8FF04E000F0A2F8204600F034F9277721
:10195000680716D5700714D521686FF00400086178
:10196000022020772068806910F4407F204602D052
:10197000FFF7CFFF04E000F089F8204600F01BF9E4
:101980002777280715D5300713D521686FF0080091
:101990000861042020772068C0698007204602D0B3
:1019A000FFF7B7FF04E000F071F8204600F003F9FC
:1019B0002777E80616D5F00614D521686FF01000D9
:1019C0000861082020772068C06910F4407F204615
:1019D00002D0FFF79EFF04E000F058F8204600F028
:1019E000EAF82777E80708D0F00706D021686FF0FB
:1019F00001000861204600F02DF9280608D53006C0
:101A000006D521686FF0800008612046FFF798FD39
:101A1000680608D5700606D521686FF04000086199
:101A2000204600F097F9A8060AD5B00608D5216827
:101A30006FF0200008612046BDE8F041FFF781BD4E
:101A4000BDE8F08100B585B00021009101910291BF
:101A500003910068B0F1804F11D10A48816941F0CB
:101A6000040181618069694600F004000490082047
:101A700000900220019003900348FFF749F805B059
:101A800000BD00000010024000080140704770B522
:101A9000044690F83C0000260D4601280FD0012096
:101AA00084F83C006AB1042A1DD0082A2FD00C2AE1
:101AB0003FD00126002084F83C00304670BD022053
:101AC00070BD206800F036FF2068816941F0080190
:101AD00081612068816921F0040181612068816948
:101AE0002A69114311E0206800F04CFF20688169E9
:101AF00041F4006181612068816921F48061816124
:101B0000206881692A6941EA02218161D2E720685F
:101B100000F064FF2068C16941F00801C1612068DC
:101B2000C16921F00401C1612068C1692A691143BA
:101B300011E0206800F07EFF2068C16941F4006177
:101B4000C1612068C16921F48061C1612068C169F7
:101B50002A6941EA0221C161ACE710B5040003D053
:101B600094F83D0010B107E0012010BD002084F87A
:101B70003C00204600F01EF8022084F83D00211DA4
:101B8000206800F07BFE012084F8460084F83E00C7
:101B900084F83F0084F8400084F8410084F8420053
:101BA00084F8430084F8440084F8450084F83D003C
:101BB000002010BD7047704710B50446022249B19D
:101BC00004290ED0082913D094F84100012816D01A
:101BD000012010BD94F83E000128F9D184F83E2080
:101BE0000FE094F83F000128F2D184F83F2008E08C
:101BF00094F840000128EBD184F8402001E084F8FB
:101C000041200122206800F075FE0F4920688842BB
:101C100003D1426C42F4004242642068884208D0FA
:101C2000B0F1804F05D00949884202D00849884266
:101C300004D1816801F00701062903D0016841F051
:101C400001010160002010BD002C01400004004093
:101C5000000800402DE9F041044600683049884200
:101C600001D1FFF755F82F492068884255D12E4CF5
:101C70002088401C80B2208028284ED300F01EFB14
:101C800000262680FEF77AFC03F0B6F8274D296877
:101C900002F04CFF264F2860396861608846014693
:101CA0002448006803F0AAF9054638602248234C0E
:101CB000076817F0FF4F05D02946206802F036FF6D
:101CC000206000E026604146284603F097F91C4951
:101CD000096803F0BDF806463846216803F0B8F8F5
:101CE000044618482946006803F0B2F8214602F07D
:101CF0001DFF314602F01AFF1349144A0860904252
:101D000002DC134A904200D90A60086803F038F8F0
:101D1000BDE8F04100B200F00FBDBDE8F081000069
:101D2000002C0140000800400000002014000020AA
:101D30001C000020100000202800002020000020AF
:101D40002C00002024000020180000200000C842C1
:101D50000000C8C2704770B5040004D094F8410078
:101D6000002510B106E0012070BD84F840502046E7
:101D700000F024F8242084F841002068C16821F490
:101D80000051C160204601F003F82068016921F488
:101D9000904101612068416921F02A014161206878
:101DA000C16841F40051C1606564202084F841009D
:101DB00084F842006563002070BD000030B585B036
:101DC000002400940194029403940068144988420A
:101DD00024D11448816941F480418161816901F411
:101DE00080410491816941F00401816180690E4D57
:101DF00000F0040004904FF4007000900220019065
:101E00000320039069462846FEF782FE2815CDE997
:101E10000004694628460294FEF77AFE05B030BDFC
:101E20000038014000100240000801402DE9F8434D
:101E3000044690F84100984616460D46202802D0E8
:101E40000220BDE8F88385B17EB1002060642120C6
:101E500084F84100FEF756FFA6848146E684A06818
:101E60002027B0F5805F02D003E00120E9E7206978
:101E700010B12E4600250EE000260CE08021204601
:101E800000F0E2FFA8B9C6B116F8010B216848605E
:101E9000E08C401EE084E08C4B464FF00002CDF811
:101EA00000800028EAD14FF04001204600F0CCFF2E
:101EB00040B184F841700320C3E735F8020BC0F34A
:101EC0000800E3E784F841700020BAE7FEE700006D
:101ED0000349002201EBC001C879CA7170470000B4
:101EE000C40000200148FFF7B7BB0000C801002074
:101EF0003EB5002410480094019402940D4984607A
:101F0000016004730475012505614FF4602144608C
:101F1000C161FEF72DFC08B1FEF714FB0095CDE979
:101F2000015469460448FEF7A1FB002801D0FEF7E2
:101F300009FB3EBD00240140D80000203EB500242E
:101F400011480094019402940E4984600160047366
:101F50000475012505614FF460214460C161FEF7FD
:101F600007FC08B1FEF7EEFA0220CDE9000569464C
:101F700002940548FEF77AFB002801D0FEF7E2FA4A
:101F80003EBD000000280140080100207CB5194A30
:101F90000021194801F006F8184900251824886224
:101FA0002B46402216A11948CDE9004502F06CF9F4
:101FB0000023402216A11948CDE9004502F064F93A
:101FC0000023402216A11848CDE9004502F05CF933
:101FD0000023402215A11848CDE9004502F054F92C
:101FE0000023402215A11848CDE9004502F04CF924
:101FF0007CBD0000C8510008CD2700080800002063
:10200000546573744F4C454400000000E52B0008F4
:10201000546573744D6F746F720000007D2B00085F
:102020005465737441444300C12A000854657374B5
:1020300045636F6465720000712B0008546573740A
:102040005573617274000000092D000870B586B0E8
:10205000002422480094019402940394816941F081
:1020600020018161816901F020010491816941F0C1
:1020700004018161816901F004010491816941F0E9
:10208000080181618069164E00F008000490012269
:102090004FF443513046FEF730FE40F60200012572
:1020A0008DE8310069463046FEF732FD4FF440506E
:1020B000CDE90005032569463046CDE90245FEF726
:1020C00027FDC020009001AA112082E83100694656
:1020D0003046FEF71DFD06B070BD00000010024046
:1020E000000C014010B58EB00024079408940994A8
:1020F0000A940B941C2168460C94FEF730F91D4895
:102100004FF0804101602321C0E901146321C0E93F
:1021100003148461FFF74AFA08B1FEF713FA4FF48B
:102120008050079007A91348FFF7C2FA08B1FEF7DD
:1021300009FA1048FFF711FD08B1FEF703FA0B94F6
:102140000BA90C480C94FFF7FDF908B1FEF7FAF95A
:102150006020CDE9000402940C22694605480494ED
:10216000FFF795FC08B1FEF7EDF90248FFF76AFCAE
:102170000EB010BD3801002010B58CB02421684687
:10218000FEF7EDF800241548099413490A94C0E9B4
:1021900000144FF6FF71C0E902410461846101201F
:1021A000CDE90004CDE902040494CDE9054007948B
:1021B00069460A480894FFF7E9FA08B1FEF7C2F940
:1021C000099409A905480A94FFF7BCF9002801D031
:1021D000FEF7B8F90CB010BD0004004080010020EB
:1021E00010B586B00024174800940194029403941B
:1021F000049413490594016040F2E731C0E90114E9
:102200004721C0E903148461FFF7D0F908B1FEF754
:1022100099F94FF48050009069460A48FFF748FA50
:1022200008B1FEF78FF9049404A906480594FFF756
:1022300089F9002801D0FEF785F906B010BD00002D
:1022400000080040C80100200C4810B50A49016090
:102250004FF4E1314160002181600C22C160C0E98E
:1022600004128161C161FFF776FD002803D0BDE84B
:102270001040FEF767B910BD003801401002002081
:10228000FEE700000EB501200090019005200290AD
:1022900069460848FEF7EAF90220009069460648B8
:1022A000FEF7E4F90348FEF775F90348FEF772F903
:1022B0000EBD0000D8000020080100202DE9F041EB
:1022C00000240B4E012700BF06EBC40556F834006E
:1022D000A988FEF70DFDA979012901D100B9EF7197
:1022E000641CE4B2A871022CEED3BDE8F0810000BA
:1022F000C4000020FEE770B500240021204600F055
:10230000D4F80025002000F0FFF96D1CEDB2802DFF
:10231000F8D3641CE4B2082CEFD370BD10B5064CA2
:10232000012240212046FEF7E8FC20460122BDE8BC
:1023300010408021FEF7E1BC000C01402DE9F04186
:102340000024124E0746802525FA04F23A408021E7
:102350003046FEF7D2FC012240213046FEF7CDFC8C
:10236000002240213046FEF7C8FC641CE4B2082C71
:10237000EAD3012240213046FEF7BFFC3046BDE8DB
:10238000F04100224021FEF7B8BC0000000C0140E3
:1023900010B50B4C012280212046FEF7AEFC012235
:1023A00040212046FEF7A9FC002280212046FEF7AE
:1023B000A4FC20460022BDE810404021FEF79DBC51
:1023C000000C014010B5094C002280212046FEF788
:1023D00094FC012240212046FEF78FFC204601227A
:1023E000BDE810408021FEF788BC0000000C0140D1
:1023F00010B500204FF47A720021491C9142FCD3A1
:10240000401C9042F8D3FFF789FFAE2000F06BF933
:10241000D52000F068F9802000F065F9A82000F0D0
:1024200062F93F2000F05FF9D32000F05CF9002052
:1024300000F059F9402000F056F9A12000F053F9BE
:10244000C82000F050F9DA2000F04DF9122000F019
:102450004AF9812000F047F9CF2000F044F9D92053
:1024600000F041F9F12000F03EF9DB2000F03BF9EB
:10247000302000F038F9A42000F035F9A62000F053
:1024800032F98D2000F02FF9142000F02CF9AF2044
:1024900000F029F9BDE81040FFF72DBF02460120EA
:1024A00000E05043491EFCD2704710B50C4640F086
:1024B000B00000F018F9102040EA141000F013F9F1
:1024C00004F00F00BDE8104000F00DB92DE9F04117
:1024D0000746CE004000083E801E15464FF0FF38EC
:1024E000F1B2C0B2FFF7E1FF1148002400EB05157F
:1024F0002819A0F5805090F8000E00F005F9641C32
:10250000E4B2082CF4D308EB4700F1B2C0B2FFF7F5
:10251000CCFF00242819A0F5805090F8080E00F098
:10252000F3F8641CE4B2082CF4D3BDE8F081000099
:10253000285200082DE9F05F0024DDF828801F46AE
:1025400015468A46834612F1FF4F02D3012482F0DA
:102550000045284602F030FC064641460A20FFF7B7
:102560009DFF02F061FC8146304602F05DFC294689
:1025700002F03AFD494602F06BFC4FF07C5102F04C
:10258000D5FA02F019FC054641460A20FFF786FFFE
:10259000A84201D80025761C0CB12D2200E0302283
:1025A00051465846FFF792FF00244FF00A0914E005
:1025B000391B0A20491EFFF771FFB6FBF0F1B1FB92
:1025C000F9F209FB12120AEB0400401CC1B2584692
:1025D0003032FFF77BFF641CE4B2BC42E8D30AEB65
:1025E0000706701CC1B22E225846FFF76FFF002469
:1025F0004F4614E0A8EB04010A20491EFFF74EFFE6
:10260000B5FBF0F0B0FBF7F107FB11023019801CAD
:10261000C1B258463032FFF759FF641CE4B244455A
:10262000E8D3BDE8F09F2DE9F04700241D4616468B
:10263000884681460A2713E0291B0A20491EFFF716
:102640002DFFB6FBF0F0B0FBF7F107FB110208EB32
:102650000400C1B248463032FFF738FF641CE4B2D0
:10266000AC42E9D3BDE8F0872DE9F0471E461400DF
:102670008846814604D42B22FFF728FF254603E035
:102680002D22FFF723FF654200240A2714E0311BA7
:102690000A20491EFFF702FFB5FBF0F0B0FBF7F18F
:1026A00007FB110208EB0400401CC1B2484630325F
:1026B000FFF70CFF641CE4B2B442E8D3BDE8F08736
:1026C0002DE9F04115460E460746002406E0301974
:1026D000C1B23846FFF7FAFE641CE4B22A5D002A54
:1026E000F5D1BDE8F08110B50446FFF751FE782022
:1026F000FFF724FE0020FFF721FE2046FFF71EFE15
:10270000BDE81040FFF75EBE10B50446FFF740FE7F
:102710007820FFF713FE4020FFF710FE2046FFF75A
:102720000DFEBDE81040FFF74DBE00000C21014832
:10273000FFF742BA380100202DE9F041104D041E88
:102740004FF480514FF400574FF080460BDD0122CB
:102750002846FEF7D2FA002239462846FEF7CDFA7F
:102760003464BDE8F08100222846FEF7C6FA012253
:1027700039462846FEF7C1FA60423064F1E70000AE
:10278000000C014070B586B01C4615460E4602F09E
:1027900033FB0090304602F02FFB0190284602F0F8
:1027A0002BFB0290204602F027FB039005481423E0
:1027B0001A460068049069460348FFF737FB06B0E5
:1027C00070BD00001858000810020020FEE710B588
:1027D0004FF0E020006901F0AFFD012803D0BDE813
:1027E000104001F0DDBA10BD30B593B02821684625
:1027F000FDF7B5FD14210AA8FDF7B1FD0025012064
:102800000F9510951195010412958DE82300049001
:102810004FF4E010CDE90810022407946846FEF753
:10282000FFFC08B172B6FEE70AA90F2081E831006B
:102830004FF48060CDE90D0502210AA8FEF7F4FBF4
:1028400008B172B6FEE74FF4004011900F940FA844
:10285000FEF774FB002801D072B6FEE713B030BD5E
:10286000704700000148FFF755B8000058020020EB
:102870000148FFF74FB80000C8010020F0B502681A
:10288000194B1A4C1A4D4FF08047984205D0B84268
:1028900003D0A04201D0A84203D122F070064A68BA
:1028A0003243984205D0B84203D0A04201D0A8429A
:1028B00003D122F44074CA6822434C6922F080029A
:1028C000224302608A68C2620A688262984201D129
:1028D00009690163012141610169C90703D00169E7
:1028E00021F001010161F0BD002C01400004004015
:1028F0000008004010B501F01F030121046A99404F
:102900008C430462016A9A401143016210BD10B504
:10291000846842EA032224F47F440A43224382600B
:1029200010BD826822F070020A4342F00701816004
:102930007047000030B5036A026A22F001020262A9
:102940004268846924F073050C682C4323F0020567
:102950008B682B430A4DA8420BD123F00805CB68A6
:1029600022F440722B434D6923F0040315438A6916
:102970002A434260846149684163036230BD0000BC
:10298000002C014030B5026A036A23F01003036291
:10299000436884690D6824F4E64444EA05248D689C
:1029A00022F0200242EA05120B4DA8420ED1CD685A
:1029B00022F0800242EA05124D6923F4406343EAA3
:1029C00085038D6922F0400243EA850343608461F8
:1029D00049688163026230BD002C014030B5036A52
:1029E000026A22F4807202624268C46923F40073AE
:1029F00024F073050C682C438D6843EA05230C4DC5
:102A0000A8420ED1CD6823F4006343EA05234D6943
:102A100022F4405242EA05128D6923F4806342EAAF
:102A200005124260C4614968C163036230BD0000A1
:102A3000002C014030B5046A026A22F4805202621E
:102A40004268C3690D6823F4E64343EA05238D68B1
:102A500024F4005444EA0534064DA84204D14D69DB
:102A600022F4804242EA85124260C36149680164EF
:102A7000046230BD002C014010B5036A046A24F0E2
:102A800001040462846924F0F00444EA021423F08F
:102A90000A020A438461026210BD10B5036A046A27
:102AA00024F010040462846923F0A00324F4704429
:102AB00044EA023243EA01118261016210BD000062
:102AC00098B0FFF7DFFB264F0DF1400A254CDFF8E9
:102AD0009880264ED146282221490CA8FDF705FCF6
:102AE000B86A1690F86A1790202251466846FDF79A
:102AF000FCFB0DF1300C9CE80F00FDF725FD60801C
:102B0000282219490CA8FDF7F0FBD8F828101691D7
:102B1000D8F82C001790202249466846FDF7E5FBBF
:102B20000DF1300C9CE80F00FDF70EFDA08005466E
:102B3000608802F079F9314602F060F8032102F072
:102B400004FBE061284602F06FF9314602F056F8C6
:102B5000022102F0FAFA2062282000F0E8F9BAE730
:102B6000D8000020080000200801002000F07F4568
:102B700000F0B4F9282000F0DAF9FBE7FFF7B2F92A
:102B8000FFF7D4FD134E144C7702DFF85080DFF8C6
:102B9000509000250020FFF79BF920B13146A06836
:102BA00001F0C4FFA060606AB84200DD65620120E8
:102BB000FFF78EF948B1606A01F08CFF42464B4640
:102BC00001F0A2FD01F06EFD6062142000F0AFF98B
:102BD000E0E700000000A041080000207B14AE47A1
:102BE000E17A943F08B5FFF703FC01213AA20846B9
:102BF000FFF766FD3AA209210120FFF761FD3AA225
:102C000001210220FFF75CFD38A209210220FFF715
:102C100057FD37A201210220FFF752FD36A2012104
:102C20000320FFF74DFD35A209210320FFF748FDE2
:102C300033A201210420FFF743FD01260225314C78
:102C400003274FF08048A06802F09AF80246032359
:102C500005210120FFF708FDE06802F091F8024627
:102C600003230D210120FFF7FFFC0423B4F900200A
:102C70000C210220FFF7F8FCD8F8402002230521A0
:102C80001846FFF7F1FCE06902F096F802460223CD
:102C900004210320FFF7C7FC009501230421032032
:102CA000E269FFF747FC009701230B210320226A0A
:102CB000FFF740FC0095042101230846626AFFF7F4
:102CC00039FC0423009609211846A269FFF732FC5B
:102CD000282000F02CF9B6E75461723A0000000099
:102CE0004163743A0000000041633A004C6F3A00BF
:102CF0004F75743A000000004B703A004B690000B9
:102D00006B643A00080000200C4C206902F038F88F
:102D100007B2606902F034F806B2E06802F030F8F9
:102D200005B2A06802F02CF800B23B4632462946B4
:102D3000FFF728FD282000F0FAF8E6E70800002059
:102D400001680C3151E8002F22F4907241E8002311
:102D5000002BF5D10168143151E8002F22F0010257
:102D600041E80023002BF5D1016B012909D101684D
:102D70000C3151E8002F22F0100241E80023002B13
:102D8000F5D1202180F84210002101637047000036
:102D900070B5044600680169E26821F440511143AE
:102DA00001612169A0680843616908432168CA6814
:102DB00041F20C639A430243CA6020684169A269E8
:102DC00021F44071114341611E492068884202D1BB
:102DD000FEF7F0F901E0FEF7DDF900EBC00101EBD1
:102DE0000012606864218000B2FBF0F3B3FBF1F3E2
:102DF0006FF018067343B2FBF0F5B2FBF0F605EB8B
:102E00008305322303EB0515B5FBF1F5B6FBF1F6AF
:102E100005F0F00505EB0615B2FBF0F6B2FBF0F09D
:102E2000B0FBF1F06FF01802504306EB800003EBAB
:102E30000010B0FBF1F0216800F00F00284488601A
:102E400070BD0000003801402DE9F8439846174650
:102E50000D460446089E24E0701C22D0FDF752FF68
:102E6000A0EB0800B0421AD8CEB12068C16849076B
:102E700017D5802D15D0402D13D00168C9430907FF
:102E80000FD401680025406800902046FFF758FFE6
:102E90000820606484F840500120BDE8F8830320D6
:102EA000FBE72068006835EA000004D00020B84243
:102EB000D2D00020F1E70120F9E7FEE70907090E6B
:102EC000002804DB00F1E02080F80014704700F0D7
:102ED0000F0000F1E02080F8141D704710B53C2170
:102EE0000348FEF7CFFC03490020086010BD000036
:102EF0008001002024040040FDF712FFFFF774FC5E
:102F0000FFF7A4F8FEF7F4FFFFF7ECF8FFF734F94A
:102F1000FFF766F9FFF798F9FFF710F8FFF706FCDF
:102F200000F012F8FFF732F800F020F8FEE710B5D5
:102F3000EFF3058111B16FF0050403E0002408B13F
:102F400000F0F4FD204610BDEFF3058010B16FF0E6
:102F5000050070470448016811B14FF0FF30704719
:102F600001210160002070479400002010B5EFF3AC
:102F7000058010B16FF0050010BD084801680129F7
:102F800002D04FF0FF3010BD054A002182F8141D19
:102F90000221016000F032FE002010BD94000020EC
:102FA0000BE000E02DE9FF414FEA01034FF000057F
:102FB000EFF30581039549BB40B380271821002416
:102FC0004AB3166806B1344696691EB13146761E7C
:102FD000382E02D21679F60703D0002004B0BDE8DF
:102FE000F081566906B1B708D2F808C0BCF1000FED
:102FF0000DD0D5685C2D18D312693AB136B18DE881
:1030000006103A46214601F06CF903900DE0D668AF
:103010005EB912694AB903AACDE90012BAB22146D3
:1030200001F032F9012800D003950398D6E700009B
:103030002DE9F041134C0F460546E6682068001D57
:1030400000F040FC681C07D137B12168BDE8F041B1
:103050000D48091D00F086BC20683544B542456026
:10306000216805D2A06BBDE8F041091D00F062BCEB
:10307000606B091D00F05EFCA06A854200D2A5626B
:10308000BDE8F08144000020900700202DE9F041C8
:10309000054600F073FC2D4CA068401CA060206821
:1030A0002B4F10B1606930B32BE02560A068012878
:1030B00027D1002606EB860007EB800000F02CFCF1
:1030C000761C382EF6D3234800F026FC2148143015
:1030D00000F022FC1F48283000F01EFC1D483C3048
:1030E00000F01AFC1B48503000F016FC19486063D1
:1030F0001430A06305E02068E96AC06A884200D8FD
:103100002560606A401C60626864E86A21698842E0
:1031100000D9206100EB800007EB8000291D00F042
:1031200021FC00F04BFC606900280CD02068E96AA3
:10313000C06A884207D208494FF080500860BFF348
:103140004F8FBFF36F8FBDE8F08100004400002077
:10315000E00200204007002004ED00E038B500F058
:103160000DFC104C2068C8B90F4800F0D5FB0E4884
:10317000143000F0D1FB0C48E060143020610A4BA1
:103180000020F03B009003F1500210210A2000F0D3
:103190001DFE206010B105A100F092FCBDE8384092
:1031A00000F00CBC8000002094080020546D725187
:1031B0000000000030B4026C0B46002A0BD0C1683E
:1031C0001144C1608468A14201D30168C16030BC70
:1031D0001846FDF745B830BC70472DE9F041856BC6
:1031E000174604460026026C82B1C7B1E068FDF7BD
:1031F00037F8E168206C091AE1602268914202D236
:10320000A168081AE060022F16D017E02068A8B95C
:10321000A06801F009F906460020A0600EE0606891
:10322000FDF71EF8216C606808446060A168884260
:1032300004D32068606001E005B16D1E6D1CA563BC
:103240003046BDE8F08110B5044690F8590058B1F9
:1032500001280CD002280FD0502080F31188BFF332
:103260004F8FBFF36F8FFEE7206B00F0BBFB204654
:10327000BDE8104000F0B6BB10BD000010484FF490
:103280004061420706D0C01D0D4920F00700411AD9
:10329000C1F540610B4A00230144C2E9000308392B
:1032A000183A21F0070111604B600B600B1AC0E95E
:1032B000001393604FF0004053605061704700006E
:1032C000740F0020B0000020144E154CA6F29C474D
:1032D0004FF08058DFF84C9012E000BF00F04EFB3A
:1032E000F068C568281D00F0EDFAA068401EA060D7
:1032F0006068401E606000F061FB2846FFF7A3FF96
:1033000060680028EAD138680128F9D9C9F8008036
:10331000BFF34F8FBFF36F8FF2E700007C070020F1
:103320004400002004ED00E070B51D46049C51B13E
:10333000C4F80020C4E90F010121204600F07AFD05
:1033400084F84C5070BD2460F4E700002DE9F05F74
:103350008846DDE90B941546834691009A460A9EFD
:10336000A522206BFCF7F3FF6FF00301206B01EB4C
:103370008501084420F00707780707D0502080F324
:103380001188BFF34F8FBFF36F8FFEE70025B8F1B1
:10339000000F0FD05FF00000221818F8001082F81C
:1033A000341018F8001011B1401C1028F4D384F820
:1033B000435001E084F83450382E00D33726E662BB
:1033C000C4E91365201D00F0B2FA04F1180000F002
:1033D000AEFA2461C6F138006462A061656584F8C4
:1033E000585052465946384600F05AFA2060B9F112
:1033F000000F01D0C9F80040BDE8F09F30B5114979
:1034000000E011460A688242FBD34B685C18844294
:1034100003D1406818444860084643681C18944229
:1034200009D1084C183C2468A24209D052681A44B9
:1034300042600A6812680260814200D0086030BDB4
:103440000460F9E7B000002070B5002441600B4D26
:103450000061914206D8D11A8269914206D2011DBB
:10346000286907E09A4203D2994201D3012403E07C
:10347000011DE86800F05EFA204670BD8000002063
:1034800010B5044600F07AFAA06B28B15FF0000492
:1034900000F094FA204610BD0124F9E730B589B058
:1034A0003C4D6EE00498002806DADDE90601059A35
:1034B00090470498002864DB069C606910B1201DC9
:1034C00000F000FA03A800F0D7F8024604980A2892
:1034D00057D2DFE800F00505052D334A05052D33E9
:1034E00094F8280040F0010084F828000599A069AC
:1034F000059B01442046FFF7A7FF68B3216A2046D9
:10350000884794F8280040073BD500200090059894
:10351000A169002342181946204601F08FF8D8B956
:10352000502080F31188BFF34F8FBFF36F8FFEE7FA
:1035300014F8280F20F00100207022E094F82800F1
:1035400040F0010084F828000598A06128B1811896
:1035500013462046FFF778FF13E0502080F31188D0
:10356000BFF34F8FBFF36F8FFEE794F828008107FA
:1035700003D4204600F036FA03E020F0010084F87E
:103580002800002204A9286800F0A8FD002889D19D
:1035900009B030BD800000202DE9FC410F460546F2
:1035A00000F070FB01A800F067F80446019818B11C
:1035B00000F0B2FFBDE8FC81254EAFB13069006874
:1035C000D0B30027291B3A46306800F08DFA00F08E
:1035D000A3FF0028EED11F494FF080500860BFF3D1
:1035E0004F8FBFF36F8FE5E7A542EBD800F094FF54
:1035F000F0682746C068C468201D00F063F994F89D
:103600002800410719D5A0692B4641193A462046A2
:10361000FFF71AFFA8B100200346014600902A4692
:10362000204601F00BF860B9502080F31188BFF3F9
:103630004F8FBFF36F8FFEE707E020F0010084F8A3
:103640002800216A20468847B4E70127BAE700002E
:103650008000002004ED00E00648416B096829B1B4
:10366000416BC968C9684968816270474FF0FF3192
:10367000FAE700004400002070B5054600F06AFE3D
:10368000064E0446B068844203D200F009F80120D7
:1036900000E0002028602046B46070BD800000205B
:1036A000F8B5194D20E0C068C4680668201D00F018
:1036B00009F9216A2046884794F82800400713D565
:1036C000A0693044B04206D924616060211DE868D9
:1036D00000F030F908E00020034601460090324631
:1036E000204600F0ABFF38B1E86801680029DAD164
:1036F0002969C5E90310F8BD502080F31188BFF394
:103700004F8FBFF36F8FFEE78000002008484068AE
:10371000401C4FF0500080F3118804D0BFF34F8F4E
:10372000BFF36F8FFEE7BFF34F8FBFF36F8FFEE7DF
:10373000B8000020074CE068016841B1C068002172
:10374000D0F80000FFF728FFFFF7A8FEF3E70121FC
:103750000020F7E7800000202DE9F041044600F04A
:103760000DF994F9455004F1240609E0606A48B166
:10377000304600F099FE08B100F006FA6D1E6DB2F9
:10378000002DF3DC4FF0FF3684F8456000F016F9A9
:1037900000F0F4F894F9445004F1100709E02069AE
:1037A00048B1384600F080FE08B100F0EDF96D1E1A
:1037B0006DB2002DF3DC84F84460BDE8F04100F008
:1037C000FDB800002DE9F0410546002700F05AFA47
:1037D000324E306808B9FFF751FD706905424ED18D
:1037E000C5B3083568070ED005F00700C0F1080022
:1037F0000544680707D0502080F31188BFF34F8F2E
:10380000BFF36F8FFEE72DB37068854237D823482A
:10381000183001460C6801E020460C466168A94258
:1038200002D221680029F7D131688C4227D007687D
:103830002168016060680837411B10290FD96019A1
:10384000420708D0502080F31188BFF34F8FBFF399
:103850006F8FFEE713E041606560FFF7CFFD6168A1
:103860007068401A7060B268904200D2B0607069AF
:1038700001430020C4E90001F068401CF06000F042
:103880004BFE780707D0502080F31188BFF34F8F8D
:10389000BFF36F8FFEE73846BDE8F0819800002047
:1038A00010B5031F4FF080741C601B1F21F0010135
:1038B0001960191F024B0B60143940380A6010BDA3
:1038C0000D370008D0E9013201699A60D0E901237F
:1038D0005A604A68824201D182684A6000220261CD
:1038E0000868401E0860086870470000034B0360CA
:1038F00003F15C000860802010607047BC08002065
:10390000044B036003F15C0008604FF480701060AA
:1039100070470000180B002000F108014FF0FF3243
:10392000C0E90112C16001610021016070470021FE
:103930000161704730B50B685A1C02D000F10802D3
:1039400002E0026904E02246546825689D42FAD9E3
:1039500053684B6099608A60516008610168491C36
:10396000016030BD42684A6093688B60936859601B
:10397000916008610168491C01607047502080F324
:103980001188BFF34F8FBFF36F8F0A494868401CFF
:10399000486001280CD10848006810F0FF0F07D0DC
:1039A000502080F31188BFF34F8FBFF36F8FFEE776
:1039B00070470000B800002004ED00E008494868A6
:1039C00028B1401E486001D180F311887047502013
:1039D00080F31188BFF34F8FBFF36F8FFEE70000B6
:1039E000B800002070B500282AD0164DA0F10804B8
:1039F00060686969084207D1502080F31188BFF3DD
:103A00004F8FBFF36F8FFEE722683AB1502080F3EB
:103A10001188BFF34F8FBFF36F8FFEE7884360605D
:103A200000F030F960686968084468602046FFF774
:103A3000E5FC2869401C2861BDE8704000F06CBDC1
:103A400070BD0000980000204FF0E02000210161CF
:103A5000816105494FF47A720968B1FBF2F1491EA0
:103A600041610721016170474000002010B5FCF75B
:103A7000D3FB114910280ED300F1E02090F8F00399
:103A80000A78904207D2502080F31188BFF34F8FFD
:103A9000BFF36F8FFEE709480068896800F4E060B3
:103AA000884207D9502080F31188BFF34F8FBFF3AE
:103AB0006F8FFEE710BD0000B80000200CED00E0A5
:103AC00010B5084B002200BF53F832401CB1521C05
:103AD000082AF9D310BD43F8321003EBC201486045
:103AE00010BD0000A002002070B515460E46044629
:103AF000FFF744FF94F944100020491C01D184F8D9
:103B0000440094F94510491C01D184F84500FFF7A1
:103B100055FFA06B28B92A46314604F1240000F075
:103B200051F82046BDE87040FFF716BE10B5020000
:103B300014D00F48006B38B1502080F31188BFF3C8
:103B40004F8FBFF36F8FFEE700F09CF80021104607
:103B5000FFF76EFA00F0E0FC002807D105494FF0AE
:103B600080500860BFF34F8FBFF36F8F10BD000010
:103B70004400002004ED00E002490A6A0260C968BE
:103B8000416070474400002001490120C86170472E
:103B90004400002010B50C4650B10949096818319D
:103BA000FFF7C8FE2046BDE810400121FFF740BAEC
:103BB000502080F31188BFF34F8FBFF36F8FFEE764
:103BC0004400002070B514460D4668B10A490968E2
:103BD0001831FFF7C7FE0CB14FF0FF3521462846DC
:103BE000BDE87040FFF724BA502080F31188BFF37E
:103BF0004F8FBFF36F8FFEE74400002030B587B0D2
:103C00000024039405AA04A903A80494FFF76EFEF8
:103C1000DDE903010094CDE90110002315A1174847
:103C2000059A00F05EFB164D0028E8621FD000F0F8
:103C3000D5FC012809D0401C19D1502080F31188EF
:103C4000BFF34F8FBFF36F8FFEE7502080F31188D3
:103C5000BFF34F8FBFF36F8F4FF0FF30A86201208B
:103C60006861EC6007B0BDE8304000F045B807B0CF
:103C700030BD000049444C4500000000C932000836
:103C8000440000200248016B491C0163704700009A
:103C900044000020164810B5016B11B10121C1612B
:103CA00010BD0021C1610169124A01E0B9B1491E8C
:103CB00001EB810352F82330002BF7D001EB810395
:103CC00002EB830202F1080453685B685360A3426D
:103CD00001D15B685360DA680260016110BD502059
:103CE00080F31188BFF34F8FBFF36F8FFEE70000A3
:103CF00044000020E00200201CB52649087801900D
:103D0000FF20087008788DF800009DF800009DF8ED
:103D1000002000F0F000904207D0502080F311887E
:103D2000BFF34F8FBFF36F8FFEE79DF800001A4C73
:103D300000F0500020700720A06005E09DF80020F2
:103D400052008DF80020401E9DF800201206F5D488
:103D5000A060032807D0502080F31188BFF34F8F55
:103D6000BFF36F8FFEE74FF44070A06001980870BA
:103D70000A48016841F470010160016841F0704136
:103D80000160FFF761FE00206060FCF70FFA002081
:103D90001CBD000000E400E0B800002020ED00E0C1
:103DA00010B5502080F31188BFF34F8FBFF36F8F92
:103DB00000F0D6FA18B104494FF080500860002096
:103DC00080F3118810BD000004ED00E038B5049DBB
:103DD00018B153B1CAB181B120E0502080F31188ED
:103DE000BFF34F8FBFF36F8FFEE7502080F3118832
:103DF000BFF34F8FBFF36F8FFEE7502080F3118822
:103E0000BFF34F8FBFF36F8FFEE739B1502080F3C0
:103E10001188BFF34F8FBFF36F8FFEE750241C460E
:103E2000012384F846302B460094FFF77DFA2046A4
:103E300038BD000070B50D46040025D0FFF79EFD8B
:103E4000D4E90F20216802FB0011A1600021A163C9
:103E5000216861600A46D4E90F01401E00FB012180
:103E6000E16021464FF0FF3001F8440F487004F143
:103E700010008DB1FFF750FD04F12400FFF74CFD59
:103E8000FFF79CFD012070BD502080F31188BFF327
:103E90004F8FBFF36F8FFEE721690029F0D000F04C
:103EA00003FB0028ECD004494FF080500860BFF3BA
:103EB0004F8FBFF36F8FE3E704ED00E02DE9FF477D
:103EC00082B01D468A464FF00008040003D0BAF1C4
:103ED000000F08D011E0502080F31188BFF34F8FFE
:103EE000BFF36F8FFEE7206C38B1502080F311884C
:103EF000BFF34F8FBFF36F8FFEE7022D0AD1E06B48
:103F0000012807D0502080F31188BFF34F8FBFF3F3
:103F10006F8FFEE700F010FA3F4F4FF000094FF0AF
:103F2000805648B9049838B1502080F31188BFF307
:103F30004F8FBFF36F8FFEE7FFF720FDA06BE16BA4
:103F4000884207D3022D05D00498D0B1B8F1000FF4
:103F50001AD01EE02A4651462046FFF73EF9616A14
:103F600019B104F1240000F09FFA20B13E60BFF3C4
:103F70004F8FBFF36F8FFFF721FD012006B0BDE823
:103F8000F087FFF71BFD22E06846FFF7F5FD4FF0D5
:103F90000108FFF713FDFFF775FEFFF7EFFC94F93B
:103FA0004400401C01D184F8449094F94500401C21
:103FB00001D184F84590FFF701FD04A9684600F09F
:103FC00029F930B12046FFF7C7FB00F0A5FA002021
:103FD000D4E7FFF7D3FCA06BE16B884213D1FFF766
:103FE000EDFC04F110000499FFF7D4FD2046FFF723
:103FF000B3FB00F091FA00289ED13E60BFF34F8FD3
:10400000BFF36F8F98E7FFF7D9FC2046FFF7A4FBBB
:1040100000F082FA90E7000004ED00E02DE9F0479F
:104020001F4690468946040003D0B9F1000F08D01E
:1040300011E0502080F31188BFF34F8FBFF36F8FD3
:10404000FEE7206C38B1502080F31188BFF34F8F0A
:10405000BFF36F8FFEE7022F0AD1E06B012807D074
:10406000502080F31188BFF34F8FBFF36F8FFEE7AF
:10407000FFF7FCFC5020EFF3118680F31188BFF3AB
:104080004F8FBFF36F8FA06BE16B884206D3022F77
:1040900004D0002086F31188BDE8F08794F94550DC
:1040A000A06B3A4649462046FFF797F8681C04D0B3
:1040B0006D1C84F845500120ECE7606A0028FAD0B6
:1040C00004F1240000F0F0F90028F4D0B8F1000F5A
:1040D000F1D00121C8F80010EDE700002DE9F74705
:1040E000002683B08A46040003D0BAF1000F08D03E
:1040F00011E0502080F31188BFF34F8FBFF36F8F13
:10410000FEE7206C38B1502080F31188BFF34F8F49
:10411000BFF36F8FFEE700F00FF9DFF8F4804FF088
:1041200000094FF0805748B9059838B1502080F306
:104130001188BFF34F8FBFF36F8FFEE7FFF71EFCB1
:10414000A56BC5B151462046FFF734F86D1EA56337
:10415000206950B104F1100000F0A6F928B1C8F8A8
:104160000070BFF34F8FBFF36F8FFFF727FC012065
:1041700006B0BDE8F087059808B11EB106E0FFF76C
:104180001DFC27E06846FFF7F7FC0126FFF716FC49
:10419000FFF778FDFFF7F2FB94F94400401C01D1D2
:1041A00084F8449094F94500401C01D184F845906E
:1041B000FFF704FC05A9684600F02CF8002820460B
:1041C0000AD0FFF7C9FA00F0A7F92046FFF758F91F
:1041D0000028B3D00020CBE7FFF752F990B104F1EB
:1041E00024000599FFF7D6FC2046FFF7B5FA00F04A
:1041F00093F90028A2D1C8F80070BFF34F8FBFF326
:104200006F8F9BE72046FFF7A7FA00F085F995E747
:1042100004ED00E02DE9F0410C46050011D0C4B1D9
:10422000FFF7ACFB174BDA686E682068911B471CE0
:1042300017D02F681B6A9F4219D0964217D80124C5
:1042400010E0502080F31188BFF34F8FBFF36F8FC2
:10425000FEE7502080F31188BFF34F8FBFF36F8FBD
:10426000FEE70024FFF7AAFB2046BDE8F081884264
:1042700005D9401A20602846FFF77EFCF1E70020B0
:104280002060DCE7440000202DE9FF5F8346DDE984
:104290000E87994616468A469000FFF793FA050066
:1042A0001CD05C20FFF78EFA040014D00020256398
:1042B00084F85900CDE90240CDE900874B463246EB
:1042C00051465846FFF742F82046FEF7DFFE012030
:1042D00004B0BDE8F09F2846FFF784FB4FF0FF30A5
:1042E000F6E7F0B585B0DDE90B640A9DA6B1DCB157
:1042F0005C2700972663022684F85960002604AFE5
:10430000CDE90246CDE90057FFF720F82046FEF739
:10431000BDFE049805B0F0BD502080F31188BFF3B6
:104320004F8FBFF36F8FFEE7502080F31188BFF3EC
:104330004F8FBFF36F8FFEE70548416919B1006BDE
:1043400018B100207047012070470220704700001C
:10435000440000200148C06870470000440000206D
:104360002DE9F0412E4C0027206B28B1A069401C9C
:10437000A0613846BDE8F081E668761CE66013D19E
:10438000606B006838B1502080F31188BFF34F8F05
:10439000BFF36F8FFEE7606BA16B6163A063206A60
:1043A000401C2062FFF758F9A06ADFF87880864247
:1043B00009D3606B0068A0B1606BC068C5686868AD
:1043C000864211D2A0622068C06A00EB800158F8D2
:1043D0002100012800D90127E0690028C9D0012760
:1043E000C7E74FF0FF30EDE7281DFFF76BFAA86A2B
:1043F00018B105F11800FFF765FAE86A21698842EB
:1044000000D9206100EB800108EB8100291DFFF736
:10441000A9FAE86A2168C96A8842CAD30127C8E7AD
:1044200044000020E002002070B504004FF00001BD
:1044300033D01B4D2868844207D0502080F3118868
:10444000BFF34F8FBFF36F8FFEE7206D38B1401E73
:104450002065E36CE26A9A421FD040B11DE0502013
:1044600080F31188BFF34F8FBFF36F8FFEE7201DDE
:10447000FFF728FAE06CE062C0F13800A061E06A62
:104480002969884200D92861064900EB800001EBC8
:104490008000211DFFF766FA0121084670BD00006B
:1044A00044000020E002002070B5C068C46854B128
:1044B00004F118000646FFF705FA144D286B50B1B9
:1044C0003146134815E0502080F31188BFF34F8F19
:1044D000BFF36F8FFEE7201DFFF7F4F9E06A29694B
:1044E000884200D928610B4900EB800001EB800075
:1044F000211DFFF737FAE06A2968C96A884202D9A4
:104500000120E86170BD002070BD00004400002063
:1045100068070020E00200202DE9F0472C4D002420
:104520002746286B38B1FFF729FA286B401E28630D
:10453000286B40B146E0502080F31188BFF34F8FC5
:10454000BFF36F8FFEE7A968224E0120D1B3A6F515
:10455000916980463068E0B1F068C46804F11800E1
:10456000FFF7B0F9201DFFF7ADF9E06A296988422D
:1045700000D9286100EB800109EB8100211DFFF7C4
:10458000F1F9E06A2968C96A8842E3D3C5F81C805A
:10459000E0E70CB1FFF760F8AC694CB14FEA0806F0
:1045A000FFF7DEFE00B1EE61641EF9D10020A861C4
:1045B000E86938B10849012738070860BFF34F8F11
:1045C000BFF36F8FFFF7FAF93846BDE8F0870000B8
:1045D000440000206807002004ED00E010B586B01C
:1045E000FEF7BCFD114C2068B8B100200390049088
:1045F00005AA04A903A8FFF783F9DDE90321022036
:104600008DE8070000230AA10B48059AFFF769FE11
:10461000606010B106B0012010BD502080F31188F9
:10462000BFF34F8FBFF36F8FFEE7000080000020C5
:10463000546D722053766300353700082DE9FF4131
:104640001E46134602000A9D4FF0000016D0144C7F
:104650002768002F0FD0CDE900130292062917DA40
:10466000FFF76AFE02284FF000030FD000226946D0
:104670002068FFF723FC04B0BDE8F081502080F3F0
:104680001188BFF34F8FBFF36F8FFEE72A46EEE727
:104690000023324669463846FFF7C0FCEBE70000CE
:1046A0008000002021F00042A2F16052B2F5801F8C
:1046B00001F0004328BFD2F17F6C0BD95FEA001CE8
:1046C00043EAC20242EB507018BF704728BF20F087
:1046D00001007047B2F5801FBCBF184670474FEA13
:1046E000410C1CF5001F02D2084600F078BC70B5E2
:1046F00000F0B2F800000089FFF7F6BF4FF000406D
:10470000A0F580007047000010B591EA030F48BF84
:1047100083F0004300F1FC80841A71EB030C05D296
:10472000121943EB0C03001B61EB0C01DFF824E1D1
:104730004FEA1154A4EB135C1EEA430F18BF9EEA24
:10474000445F73D023EA0E03DCF1200E21EA04510A
:1047500043F4801332D322FA0CFE10EB0E0023FA3E
:104760000CFE41EB0E01CCF1200E03FA0EFE10EB15
:104770000E0051F10001B1F5801FCCF1200E32D2B4
:1047800001EB045112FA0EF2BDE8104058BF704719
:10479000401C38BF5FEA420218BF7047002814BFB0
:1047A00020F0010041F100014FEA410313F5001F21
:1047B00038BF7047A1F1C04100F09CB8012A43EB1B
:1047C0000302ACF1200CDCF11F0E32BF4FF0000EE3
:1047D00023FA0CF310EB030041EB0451B4EB115F2F
:1047E000D0D0A1EB045101F5801149085FEA3000F7
:1047F00001EB04510ED350F1000038BF12FA0EFE47
:1048000008D1BDE81040C9E7401C38BF5FEA42024A
:10481000CAD1C3E7BDE810404FEA410313F5001FBA
:1048200038BF7047A1F1C04100F064B89EEA445F10
:1048300008D011EA5E0FBDE8104004BF01F000414E
:1048400000207047BDE8104070B500F005F800BFCB
:1048500064FBBE3E0000E0FF0EF1020E2EF0030EE0
:104860005EF8046B364205D4012A43EB030515F5C7
:10487000001F12D8012841EB010C1CF5001F0CD8B9
:104880000ED14FEAD17C15F5001F0CEB4C0C0CF14E
:10489000020C08BF4CEBD37C04E04FF0080C01E0A5
:1048A0004FEAD37C0CEB4C0526FA05F606F007061A
:1048B000B6F1040C06D20EEB860CBDE870404CF04D
:1048C000010C6047DFE80CF0090B02024FF00041D9
:1048D0004FF00000A1F5002170BD194610460128D7
:1048E00051EB010418BFD4F5001484BF002001F07F
:1048F000004170BD0808A0F500114FEA3101704772
:1049000010B591EA030F48BF83F000433FF504AFB1
:10491000841A71EB030C07D212198CF0004C43EB94
:104920000C03001B61EB0C01DFF8A4E14FEA11540A
:10493000A4EB135C1EEA430F18BF9EEA445F00F02D
:10494000B08023EA6E03524221EA0451C3EB6E03A6
:1049500038BF5B1EDCF1200E25D322FA0CFE10EBD3
:104960000E0043FA0CFE41EB0E01CCF1200E03FACF
:104970000EFE10EB0E0051F10001CCF1200E29D4F7
:1049800012FA0EF201EB0451BDE8104058BF704717
:10499000401C1CBFB2F1004F704700280CBF491CDF
:1049A00020F00100704712EB020E43EB030218BF28
:1049B0004FF0010E4EEA4202ACF1200CDCF11E0E6B
:1049C00054D943FA0CFE10EB0E0051F1FF31CCF13B
:1049D0001E0ED5D50EF1010E12FA0EFE404141EB2E
:1049E000010101EB445C5FEA5C5C10D910EBDE7006
:1049F00001EB045138BFBEF1004FBDE8104018BFB5
:104A0000704700280CBF491C20F00100704730D2CD
:104A10004FEAD42C11F5001124F400641BD0B1FA34
:104A200081F20B3AA41AA41ED2F12003914030FA6D
:104A300003F31943904001EBCC71002C01EB0451BE
:104A4000BDE81040A8BF704701F1C0414FF0000021
:104A500001F000417047B0FA80F310FA03F100D181
:104A600010BDE41A173C4805C90AE4E701EB0451FC
:104A700010BD491001EB0451BDE810404FEA300071
:104A800002E04FF0000170474A0008BF0042F8D032
:104A9000B2F5001F28BF704701F000414FF0000041
:104AA00070479EEA445F07D011EA5E0FBDE81040F0
:104AB00004BF002100207047BDE8104070B5FFF72B
:104AC000CBFE00BF40DFF63E83F00041104670474A
:104AD0000000E0FF43004FEAD30C4FEA3C0C434098
:104AE0001FBF40070CF1605113F0FE4F70471CF0E0
:104AF000006F03D100200CF0004170470CF0004320
:104B000043EA507010B540EACC0000F022FA00BF32
:104B1000000000924FEA0001FFF7ECBE4FF00041A9
:104B20004FF00000A1F500217047000090EA010F4E
:104B300048BF81F0004100F16882421A3CBF801AF0
:104B400089184FEAD0524FF07F4C1CEA410FA2EB7C
:104B5000D15318BF9CEA026F00F03B804FF0004C2D
:104B60004CEA00204CEA012121FA03FC10EB0C0C6A
:104B70001ED202F1FF325FEA1C2040EBC25038BF68
:104B800070471CF07F0F4FEA400C18BFBCF17F4FFD
:104B900038BF7047C3F12003994008BF20F00100DF
:104BA000BCF17F4F38BF7047A0F1C04000F017BA8A
:104BB0004FEA3C00000A40EBC25028BF1CF0FF0F38
:104BC0004FEA400CE6D018BFBCF17F4F38BF7047AA
:104BD000EAE79CEA026F05D010EA5C0F08BF00F01C
:104BE0000040704710B500F0B4F900BF64FBBE3E52
:104BF000014800F078BA00BF0000C07F4FF47F0C7E
:104C00001CEAD0121EBF1CEAD11392EA0C0F93EAE1
:104C10000C0F00F0858090EA010F48BF42F48072CB
:104C200040F4000C41F400002CF07F4120F07F4064
:104C300000B58142A2EB03020FF2081CACEB504E10
:104C4000C0F100009EF800E04FEA4E0E00FB0EFCA3
:104C500038BF49004FEA2C1C02F5FA020CFB0EF398
:104C60004FEACE1E4FEA112C4FEAC1210EEB635ED4
:104C700042EB22420EFB0CFC4FEA1C5300FB0311DB
:104C80004FEA112C4FEA01310EFB0CFC4FEADC4CD1
:104C900000FB0C11C14228BF09184CEB03335DF82F
:104CA00004EB10EB410143EBC250B2F57C0F38BF6F
:104CB000704729D512F0F00F1CBF00F1C04000F082
:104CC00000407047008182838485868788898B8C29
:104CD0008D8E8F919293959697999A9C9D9FA0A265
:104CE000A3A5A7A8AAACAEB0B2B3B5B7B9BCBEC0B5
:104CF000C2C5C7C9CCCED1D4D7D9DCDFE2E6E9EC56
:104D0000F0F3F7FAFE0000004FEA400C0CF1807C53
:104D1000BCF17E4F28BF7047B0F1C04000F05FB9D2
:104D200090EA010F0CEAD11348BF42F48072624549
:104D300038BF634507D213F47F0F16D080EA010015
:104D400000F00040704710B500F003F9097EFC3E0A
:104D500000F005B880EA010000F00040704780EAEA
:104D6000010000F0004000F03AB912F47F0F04BFD8
:104D70000248704780EA010000F031B90000C07FAE
:104D800041000B0ED3F19E0208D950F400034FEA04
:104D9000032323FA02F048BF4042704710B500F0E9
:104DA000D8F800BF49922480002070476FF000427D
:104DB00082EA200070470000C10DD1F19E0206DB9F
:104DC0004FEA002343F0004323FA02F07047004209
:104DD00007D54FEA4001B1F1FE4F02D24FF000007B
:104DE000704710B500F0B5F8499224800020704754
:104DF0006FEA20007047000010F0004148BF4042B9
:104E0000B0FA80F310FA03F2C3F19D030BD051EA1C
:104E1000C35101EB1220530638BF704700F1010067
:104E200008BF20F001007047B0FA80F310FA03F2D7
:104E3000C3F19D030AD0D90501EB1220530638BFF8
:104E4000704700F1010008BF20F00100704700002A
:104E50004FF47F0C1CEAD0121EBF1CEAD11392EA59
:104E60000C0F93EA0C0F00F0478090EA010F48BF47
:104E700042F480724FF0004C4CEA00204CEA0121D1
:104E800002EB0302A0FB0113A2F50002002918BFE8
:104E900043F001035B0028BF4FEA330342EB224299
:104EA0005FEA132C4CEBC2502EBFBCEB436FB2F544
:104EB0007C0F70474FEA036CBCF1004F08BF20F035
:104EC0000100B2F57C0F38BF70470BD582F0FF02AE
:104ED00012F5803FC8BF704700F1C040D8BF00F056
:104EE0000040704700F5000C5FEA4C0C48BF70476B
:104EF000B0F1C04000F073B890EA010F0CEAD11392
:104F000048BF42F48072624538BF634504D280EAEC
:104F1000010000F00040704710B500F01AF800BF23
:104F20008900013E00F007B800F009B85FEA410CC3
:104F30005FEA1C6C08D080EA010000F050B85FEA1C
:104F4000400C5FEA1C6CF6D14FF00040A0F58000E9
:104F500070470EF1020E2EF0030E5EF8044B244251
:104F600004D44FEA4102B2F17F4F11D84FEA400317
:104F7000B3F17F4F0CD80ED14FEAD07CB2F17F4F06
:104F80000CEB4C0C0CF1020C08BF4CEBD17C04E098
:104F90004FF0080C01E04FEAD17C0CEB4C0324FAF3
:104FA00003F404F00704B4F1040C06D20EEB840CF5
:104FB000BDE810404CF0010C6047DFE80CF007083A
:104FC00002024FF00040A0F5800010BD08464200EC
:104FD00018BFD2F1807288BF00F0004010BDFF21E1
:104FE00041EAD050C005704780F0004090EA010FC0
:104FF0007FF5A3AD81F0004100F007B890EA010F02
:1050000048BF81F000413FF598AD421A04D882F0C4
:105010000042A0EB020011444FEAD0524FF07F4C07
:105020001CEA410FA2EBD15318BF9CEA026F4AD091
:105030004FF0004C4CEA00204CEA012121FA03FC1D
:10504000B0EB0C0C0FD412F0FE0F36D05FEA4C0020
:105050001DD5001240EBC25038BF70471CF03F0F07
:1050600018BF70470BE0A2F101025FEA1C2040EB81
:10507000C25038BF70471CF07F0F18BF7047C3F194
:105080002003994014BF401E20F0010070478008A3
:105090004FEA122308BF7047B0FA80FCA2EB0C0263
:1050A000CCF1280C60FA0CF093EA122F04BF00EB4D
:1050B000C25070474FEAC3707047130A5FEADC10B2
:1050C00008BF7047F6E79CEA026F04D010EA5C0F55
:1050D00008BF0020704710B5FFF73BFF40DFF63EEA
:1050E00081F0004070470CF00F03092B08BF082027
:1050F00000F051800A2B0BD0082B18BF704708BF57
:105100001CF0400F0AD04FF000004FF00001704734
:105110001CF0400F18BF4FF0004070471CF0100FFC
:1051200008D020F0704300F07F4242EAD3014FEAFA
:105130004370704700F0604021F07F4242EA000275
:1051400001F07F4040EA727070474FF0FF0212EAB0
:10515000D0521CBF92F0FF038B42C2BFD14200EB82
:10516000C1507047002A0AD0002B0BD0002900F054
:105170000040A4BF40F0FE4040F40000704700F043
:105180000040704743024FF00B0C18BF4CF0806C8E
:105190007FF42EAD70471CF4801F11D01CF4E02F5B
:1051A00003D06FEACC31490070474FF04050EFF325
:1051B000008222F0704242EA000282F300887047C7
:1051C0004FF00000704700001C580008000000006D
:1051D00000000000000000000000000000020000CD
:1051E000180000000000000000000000010202039F
:1051F0000405060708090A0B0C0D0E0F101001021A
:1052000002030405060708090A0B0C0D0E0F101007
:105210000000000000000000010203040607080966
:105220000000000001020304000000000000000074
:105230000000000000000000000000F80000000076
:10524000000000333000000000100C06100C0600B7
:10525000000000000000000040C07840C07840001E
:10526000043F04043F040400007088FC0830000080
:10527000001820FF211E0000F008F000E0180000D8
:1052800000211C031E211E0000F008887000000091
:105290001E2123241927211010160E0000000000E3
:1052A0000000000000000000000000E01804020000
:1052B000000000071820400000020418E000000071
:1052C0000040201807000000404080F0804040006F
:1052D0000202010F01020200000000F000000000C5
:1052E0000101011F01010100000000000000000099
:1052F00080B070000000000000000000000000000E
:105300000001010101010101000000000000000096
:105310000030300000000000000000008060180431
:10532000006018060100000000E010080810E0000E
:10533000000F102020100F00001010F800000000D7
:105340000020203F2020000000700808088870001E
:10535000003028242221300000300888884830009E
:105360000018202020110E000000C02010F80000BE
:1053700000070424243F240000F808888808080057
:105380000019212020110E0000E01088881800006C
:10539000000F112020110E0000380808C83808003E
:1053A0000000003F000000000070880808887000BE
:1053B000001C222121221C0000E010080810E0003F
:1053C0000000312222110F00000000C0C0000000C8
:1053D00000000030300000000000008000000000ED
:1053E00000008060000000000000804020100800E5
:1053F00000010204081020004040404040404000AE
:105400000404040404040400000810204080000088
:105410000020100804020100007048080808F0008D
:105420000000003036010000C030C828E810E0005D
:105430000718272423140B000000C038E0000000E8
:10544000203C23020227382008F888888870000052
:10545000203F202020110E00C03008080808380026
:10546000071820202010080008F808080810E0009D
:10547000203F202020100F0008F88888E80810003E
:10548000203F20202320180008F88888E808100012
:10549000203F200003000000C0300808083800004A
:1054A00007182020221E020008F808000008F8084B
:1054B000203F210101213F20000808F808080000D2
:1054C0000020203F2020000000000808F808080005
:1054D000C08080807F00000008F888C0281808007D
:1054E000203F20012638200008F8080000000000B6
:1054F000203F20202020300008F8F800F8F80800AD
:10550000203F003F003F200008F830C00008F808A6
:10551000203F200007183F00E01008080810E000B6
:105520000F10202020100F0008F808080808F000CD
:10553000203F210101010000E01008080810E000F0
:105540000F18242438504F0008F888888888700085
:10555000203F2000030C3020007088080808380025
:105560000038202121221C00180808F8080818001B
:105570000000203F2000000008F808000008F8089C
:10558000001F202020201F000878880000C838084D
:10559000000007380E010000F80800F80008F800C5
:1055A000033C0700073C030008186880806818085F
:1055B00020302C03032C30200838C800C8380800DD
:1055C0000000203F2000000010080808C83808002C
:1055D0002038262120201800000000FE02020200D0
:1055E0000000007F40404000000C30C00000000080
:1055F000000000010638C00000020202FE000000A8
:10560000004040407F00000000000402020204004D
:10561000000000000000000000000000000000008A
:105620008080808080808080000202040000000072
:10563000000000000000000000008080808000006A
:105640000019242222223F2008F800808000000058
:10565000003F112020110E0000000080808000001B
:10566000000E112020201100000000808088F8002A
:10567000000E112020103F2000008080808000005C
:10568000001F222222221300008080F088888818C0
:105690000020203F202000000000808080808000CB
:1056A000006B94949493600008F800808080000060
:1056B000203F210000203F2000809898000000003B
:1056C0000020203F2020000000000080989800006B
:1056D00000C08080807F000008F80000808080008B
:1056E000203F24022D302000000808F800000000B0
:1056F0000020203F2020000080808080808080006B
:10570000203F20003F20003F8080008080800000FC
:10571000203F210000203F2000008080808000008A
:10572000001F202020201F008080008080000000BB
:1057300080FFA12020110E000000008080808000EA
:10574000000E112020A0FF808080800080808000DB
:1057500020203F2120000100000080808080800008
:105760000033242424241900008080E0808000007D
:105770000000001F202000008080000000808000CA
:10578000001F202020103F2080808000008080802B
:1057900000010E30080601008080008000808080BB
:1057A0000F300C030C300F000080800080808000E0
:1057B0000020312E0E31200080808000008080800B
:1057C00080818E70180601000080808080808000BB
:1057D0000021302C2221300000000000807C0202D9
:1057E00000000000003F404000000000FF000000FB
:1057F00000000000FF0000000002027C80000000AA
:105800000040403F000000000006010102020404C5
:1058100000000000000000000000807F64656661F9
:10582000756C745461736B004858000800000020C8
:10583000D80000002801000820590008D8000020E6
:1058400000210000440100080000000000000000EA
:105850000000000000000000000000000000000048
:105860000000000000000000000000000000000038
:105870000000000000000000000000000100000027
:10588000100000000000000000127A00000000007C
:105890000000000000000000000000000000000008
:1058A00000000000000000000000000000000000F8
:1058B00000000000000000000000000000000000E8
:1058C00000000000000000000000000000000000D8
:1058D00000000000000000000000000000000000C8
:1058E00000000000000000000000000000000000B8
:1058F00000000000000000000000000000000000A8
:1059000000000000AAAAAAAA00000000000C0140A2
:1059100002000100000C014000080100000000002E
:04000005080000ED02
:00000001FF
