:020000040800F2
:100000005007002089010008871B0008011A00081A
:10001000851B00088F020008A922000800000000CC
:10002000000000000000000000000000CB1E0008DF
:100030009102000800000000C91E0008F11E00081F
:10004000A3010008A3010008A3010008A301000800
:10005000A3010008A3010008A3010008A3010008F0
:10006000A3010008A3010008A3010008A3010008E0
:10007000A3010008A3010008A3010008A3010008D0
:10008000A3010008A3010008A30100089D220008A5
:10009000A3010008A3010008A3010008A3010008B0
:1000A000A3010008A3010008A3010008A3010008A0
:1000B000551F0008A3010008A3010008A3010008C0
:1000C000A3010008A3010008A3010008A301000880
:1000D000A301000891220008A3010008A301000861
:1000E000A3010008A3010008A301000800F002F822
:1000F00000F03AF80AA090E8000C82448344AAF188
:100100000107DA4501D100F02FF8AFF2090EBAE885
:100110000F0013F0010F18BFFB1A43F0010318473B
:10012000D8290000F8290000103A24BF78C878C107
:10013000FAD8520724BF30C830C144BF04680C60ED
:10014000704700000023002400250026103A28BF35
:1001500078C1FBD8520728BF30C148BF0B60704739
:100160001FB51FBD10B510BD00F058F81146FFF7C0
:10017000F7FF02F0ABF800F076F803B4FFF7F2FFF8
:1001800003BC00F07DF8000009488047094800479B
:10019000FEE7FEE7FEE7FEE7FEE7FEE7FEE7FEE737
:1001A000FEE7FEE704480549054A064B7047000094
:1001B000531F0008ED0000085001002050070020E8
:1001C00050030020500300204FF0000200B51346FA
:1001D00094469646203922BFA0E80C50A0E80C5067
:1001E000B1F12001BFF4F7AF090728BFA0E80C5018
:1001F00048BF0CC05DF804EB890028BF40F8042B11
:1002000008BF704748BF20F8022B11F0804F18BF7D
:1002100000F8012B7047704770477047754600F033
:100220002BF8AE4605006946534620F00700854688
:1002300018B020B5FFF7B6FFBDE820404FF000062C
:100240004FF000074FF000084FF0000B21F00701BE
:10025000AC46ACE8C009ACE8C009ACE8C009ACE801
:10026000C0098D46704710B50446AFF300802046A4
:10027000BDE81040FFF781BF00487047EC00002048
:1002800001491820ABBEFEE7260002007047FEE7DA
:10029000704772B6FEE7F0B590F820500468A46885
:1002A000012D05D0022D03D0416A41F480214DE09B
:1002B00014F0406F01D1E50045D5C4F30164012578
:1002C000A5401D608D684FF4C0739DB1CE68354365
:1002D0004E6845EAC605066803EB0417F5514FF46E
:1002E000C275076805EB04150E697E51097D012969
:1002F00005D009E00E88CD6845EA4655EBE7016870
:100300004E5946F480764E511179D2F805504FF48B
:10031000C67641EA0521056806EB0416A951117855
:10032000D2F801204FF4C47541EA0221026805EBBE
:1003300004155151006803EB0411425842F00102C8
:1003400042500020F0BD416A41F400114162012099
:10035000F0BD000010B590F820300268012B07D0E6
:10036000022B05D0416A41F480214162012010BD79
:10037000D2F8000240F00100C2F80002087D00F04F
:100380001F0301209840D2F81C328343C2F81C326C
:10039000CB69B3B9D2F80C328343C2F80C328C89E2
:1003A0004B6864F31F434C6902EBC404C4F8403249
:1003B0000C890B6864F31F434C6902EBC404C4F856
:1003C0004432CB69012B16D1D2F80C320343C2F868
:1003D0000C320C884B6864F31F434C6902EBC40475
:1003E000C4F840320C89CB6864F31F434C6902EBBC
:1003F000C404C4F844328B69002BD2F804320FD005
:1004000053EA0003C2F804320B69002BD2F814320D
:1004100008D00343C2F81432096A012904D008E065
:100420008343EFE78343F5E7D2F81C120143C2F898
:100430001C12D2F8000220F00100C2F800020020D5
:1004400010BD70470246002092F82030012B01D0E9
:10045000022B05D1106821B1D0F8100000F0030084
:100460007047C068FAE770B590F82040012C05D0BD
:10047000022C03D0416A41F4802128E0046809B3CA
:100480002469A40720D04FF4D874056804EB011444
:100490002D5915F00405956005682D591AD0ED0801
:1004A000556005682C5904F00204D4604FF4DA74E6
:1004B000056804EB01142E5906F00F06082E0CD324
:1004C00008250DE0E468DCE7416A41F4001141626F
:1004D000012070BD6D0D1560E3E72D5905F00F0586
:1004E000156105682D59C5F30725956105682C59D7
:1004F000240C54614FF4DC72046802EB0112A4581E
:100500001C700468A458240A5C700468A458240C65
:100510009C700468A258120EDA704FF4DE72046800
:1005200002EB0112A4581C710468A458240A5C71DF
:100530000468A458240C9C710468A258120EDA7145
:10054000006829B1016941F020010161002070BDFE
:10055000C16841F02001C160F8E72DE9F05F054670
:10056000006800244669D0F804908768D0F80CB081
:10057000D0F810A0D0F81880F10748D0F90714D0AF
:1005800001218160B80703D5284600F0E2F90CE0AC
:10059000780702D54FF4006407E0380702D54FF41E
:1005A000805402E0284600F0D3F9F80516D52968F2
:1005B0004FF480708860B80503D5284600F0CBF969
:1005C0000CE0780502D544F4005407E0380502D564
:1005D00044F4804402E0284600F0BCF9F80316D544
:1005E00029684FF480308860B80303D5284600F0AE
:1005F000B4F90CE0780302D544F4004407E0380372
:1006000002D544F4803402E0284600F0A5F9300712
:1006100007D55FEACB6004D52968102044F4007444
:10062000C86070074FF0080707D55FEA0B7004D564
:100630002868C760284600F059F9B00706D5286831
:10064000C068800702D0284600F051F9700607D52F
:100650005FEACA6004D52968102044F48064086108
:10066000B00607D55FEA0A7004D5286807612846F6
:1006700000F03EF9F00606D528680069800702D030
:10068000284600F036F9B00308D55FEAC96005D501
:10069000296810204860284600F02CF9F00307D59F
:1006A0005FEA097004D528684760284600F056F9CB
:1006B000300446D55FEA497040D5F00504D55FEABD
:1006C000C87001D044F00104B00504D55FEA887019
:1006D00001D544F00204700504D55FEA487001D5E5
:1006E00044F00404300529D518F0700F26D008F026
:1006F0007000402815D006DC102809D020280AD028
:10070000302816D10AE050280ED0602811D10EE012
:1007100044F008040DE044F010040AE044F0200422
:1007200007E044F0400404E044F0800401E044F4B5
:1007300080742868816921F0700181612968042032
:100740004860002C05D0686A204368622846FFF79D
:1007500078FEBDE8F09F70B5040003D094F8200047
:1007600010B104E0012070BD204600F081F820683F
:10077000016841F00101016000F05AFA05460526C2
:1007800004E000F055FA401B0A2811D820684068A0
:10079000C007F6D02068016821F00201016000F076
:1007A00047FA05460BE000F043FA401B0A2806D939
:1007B000606A40F40030606284F82060D2E720680C
:1007C00040688007EFD4207E0128206801683DD072
:1007D00021F080010160607E01282068016838D026
:1007E00021F040010160A07E01282068016833D01B
:1007F00021F020010160E07E0128206801682ED0F0
:1008000041F010010160207F01282068016829D093
:1008100021F008010160607F01282068016824D070
:1008200021F004010160D4E902010843D4E9041273
:10083000114308436168491E08432168C8610020CC
:100840006062012084F82000002070BD41F080012A
:10085000C0E741F04001C5E741F02001CAE721F0BF
:100860001001CFE741F00801D4E741F00401D9E7D6
:1008700010B586B0002100910191029103910068AA
:10088000174988422AD11748C16941F00071C161F6
:10089000C16901F000710491816941F00401816135
:1008A0008069114C00F0040004904FF40060009047
:1008B0006946204600F0C2F8A01400900220019082
:1008C000032003906946204600F0B8F80022114644
:1008D000132000F019FA132000F008FA06B010BD3A
:1008E000006400400010024000080140704770475B
:1008F000704770477047000070B5044690F82000BC
:10090000012804D0606A40F40020606218E00220F0
:1009100084F820002068016821F00101016000F0E6
:1009200087F905460EE000BF00F082F9401B0A2857
:1009300008D9606A40F400306062052084F8200025
:10094000012070BD20684068C007EDD1606270BDB5
:10095000704770477047704770477047704710B5D1
:1009600090F821100022022905D00421816380F82B
:100970002020012010BD01680B6823F00E030B60DE
:1009800001680B6823F001030B6090F84030C46BE2
:10099000012101FA03F3636080F8211080F8202020
:1009A000104610BD10B590F821100024022903D084
:1009B0000421816301243DE001680A6822F00E02EF
:1009C0000A6001680A6822F001020A601A4A016896
:1009D000914201D1012121E0174A1432914201D103
:1009E00010211BE0144A2832914201D1891515E0EB
:1009F000114A3C32914201D189140FE00E4A503223
:100A0000914202D14FF4803108E00B4A64329142A6
:100A100002D14FF4801101E04FF08071064A083A8C
:100A20005160012180F82110002180F82010416BD5
:100A300001B18847204610BD080002402DE9F84F5B
:100A4000DFF8B8910024A9F1040B23460F2709F120
:100A5000040AABF1040EC9E00125A5402A40AA42D0
:100A60007DD1674ED1F804C0ACEB0608B44532D056
:100A700014DCBCF1030F3AD009DCBCF1000F2AD022
:100A8000BCF1010F1CD0BCF1020F31D11DE0BCF153
:100A9000110F17D0BCF1120F2AD119E0B8F5881F39
:100AA00019D006DCB8F5803F15D0B8F5801F1FD1EE
:100AB00011E0B8F5001F0ED0B8F5041F18D10AE0F8
:100AC000CB6815E0CB681B1D12E0CB6808330FE044
:100AD000CB680C330CE08B682BB1012B4FF0080373
:100AE00003D0456104E0042302E0056100E0002337
:100AF000FF2A01D8064601E000F104064FEA84050A
:100B000001D9A5F12005D6F8008007FA05FC28EAEE
:100B10000C0803FA05F548EA0508C6F800804D6898
:100B2000ED0062D5374DAE6946F00106AE61AD69A4
:100B300024F0030605F001050095334D06EB050C86
:100B4000DCF80850A607360F07FA06F825EA08056C
:100B5000DFF8B880404503D14FF0000817E044E0CB
:100B6000DFF8AC80404502D14FF001080FE0DFF81C
:100B7000A480404502D14FF0020808E0DFF89880D9
:100B8000404502D14FF0030801E04FF0040808FA95
:100B900006F848EA0508CCF808804D68D9F80060E6
:100BA000ED024D4601D5164300E096432E604D6898
:100BB000DAF80060AD02554601D5164300E09643D1
:100BC0002E604D68DBF80060AD035D4601D516432D
:100BD00000E096432E604D68DEF80060ED03754638
:100BE00001D5164300E096432E60641C0D682A462A
:100BF000E5407FF431AFBDE8F88F00000804014004
:100C000000001110001002400000014000080140E7
:100C1000000C0140001001400014014080680840B1
:100C200000D0012070470AB1016170470904FBE759
:100C30000148806870470000200000200248816859
:100C4000027811448160704720000020074810B5E9
:100C5000016841F010010160032000F075F80F20D9
:100C600000F006F800F024F8002010BD002002403B
:100C700070B50D4D04464FF47A712878B1FBF0F051
:100C80000A490968B1FBF0F000F0DCFA48B9102C11
:100C900007D200222146501E00F036F800206C607A
:100CA00070BD012070BD0000200000202C0000203D
:100CB0000C4808B5816941F001018161816901F049
:100CC00001010091C16941F08051C161C06900F02A
:100CD000805000900448416821F0E06141F00071CB
:100CE000416008BD0010024000000140002809DBFF
:100CF00000F01F02012191404009800000F1E02036
:100D0000C0F8001170470000F0B40E4B1B680C4691
:100D1000C3F30223C3F10705042D00D90425191DCF
:100D2000072901D2002300E0DB1E012606FA05F1A7
:100D3000491E214099409E40761E16403143F0BC2A
:100D400001F0B3BA0CED00E0064900F007020868B4
:100D50004FF6FF03184040EA0220034A10430860A0
:100D6000704700000CED00E00000FA052DE9F047A7
:100D70000F46050061D0434E306800F00700B842CE
:100D800009D2306820F0070038433060306800F046
:100D90000700B84251D128683B4C810712D5400763
:100DA00003D5606840F4E06060602878000703D5F0
:100DB000606840F4605060606068A96820F0F000EE
:100DC000084360602878C00728D06868012810D0E0
:100DD0002168022810D0890700292EDA616821F0E5
:100DE000030101436160FFF723FF804641F2883928
:100DF0000DE021688903EFE78901EDE7FFF718FFB0
:100E0000A0EB0801494502D90320BDE8F0876068DE
:100E1000696800F00C00B0EB810FEFD1306800F092
:100E20000700B8420BD9306820F007003843306023
:100E3000306800F00700B84201D00120E5E72878CB
:100E4000400705D56068E96820F4E0600843606009
:100E50002878000706D56068296920F4605040EAC8
:100E6000C100606000F038F86168084AC1F30311FE
:100E7000515CC8400649086006480068FFF7F8FE64
:100E80000020C2E70020024000100240F0240008C9
:100E90002C0000202400002004480549006849680F
:100EA000044AC1F30221515CC84070472C00002065
:100EB0000010024000250008044805490068496800
:100EC000044AC1F3C221515CC84070472C00002085
:100ED00000100240002500080E4A51680E4801F03B
:100EE0000C03042B11D0082B0FD10C48C1F3834302
:100EF000C903C05C0AD55168084AC1F34041921E3B
:100F0000515C054A5043B0FBF1F070470449484337
:100F1000704700000010024000127A00E024000830
:100F200000093D002DE9F84F040070D02078C04D35
:100F3000C00749D06868C0F38100012807D06868FD
:100F4000C0F38100022809D16868C00306D528686B
:100F5000800339D560680028E7D035E06068B0F5D7
:100F6000803F0BD010B1B0F5A02F11D0286820F42D
:100F700080302860286820F4802002E0286840F44F
:100F800080302860606890B1FFF752FE06460AE0A4
:100F9000286840F480202860F0E700BFFFF748FE93
:100FA000801B642873D828688003F7D50CE0FFF70E
:100FB0003FFE064605E000BFFFF73AFE801B6428AF
:100FC000F0D828688003F7D420789A4E80074FF035
:100FD00001094FF0000839D5686810F00C0F07D0F0
:100FE0006868C0F38100022809D16868C00306D48C
:100FF0002868800714D52069012808D110E02069ED
:10100000B0B1C6F80090FFF713FE074605E00AE10D
:10101000FFF70EFEC01B0228C4D828688007F7D54A
:101020002868616920F0F80040EAC10028600DE0FE
:10103000C6F80080FFF7FCFD074604E0FFF7F8FD67
:10104000C01B022823D828688007F7D4207800071F
:101050002CD57948A169D9B1C0F80090FFF7E8FD17
:10106000074604E0FFF7E4FDC01B02280FD8686ABA
:101070008007F7D571484FF4FA510068B0FBF1F0E2
:10108000009000BF0098411E0091FAD20EE080E06F
:10109000C0F80080FFF7CCFD074604E0FFF7C8FD6D
:1010A000C01B022875D8686A8007F7D420784007EB
:1010B00060D5E8690027C00008D4E86940F0805096
:1010C000E861E869012700F0805000905C48016801
:1010D000C90513D40168834641F480710160FFF7AC
:1010E000A7FD824606E000BFFFF7A2FDA0EB0A00C5
:1010F00064284ED8DBF80000C005F5D5E06801286B
:101100000AD008B1052813D0286A20F0010028620F
:10111000286A20F0040002E0286A40F001002862FA
:10112000E06841F2883B98B1FFF782FD82460BE010
:10113000286A40F004002862EEE700BFFFF778FD60
:10114000A0EB0A0159455AD8286A8007F6D50CE069
:10115000FFF76EFD824605E0FFF76AFDA0EB0A018E
:1011600059454CD8286A8007F6D41FB1E86920F0A9
:101170008050E861E06988B36968C1F381010229A0
:1011800044D00228C6F8608004D0FFF751FD044621
:1011900038E034E0FFF74CFD074604E0FFF748FD78
:1011A000C01B02282BD828688001F7D4206AB0F52C
:1011B000803F05D16868A16820F40030084368606A
:1011C000D4E908010843696821F474110843686090
:1011D000C6F86090FFF72CFD044606E025E000BF4E
:1011E000FFF726FD001B022809D828688001F7D5E3
:1011F0001BE000BFFFF71CFD001B022802D90320E3
:10120000BDE8F88F28688001F4D40EE00128F7D0FB
:101210006868226A00F48031914204D1616A00F466
:101220007010884201D00120EAE70020E8E70000C2
:101230000010024000004242800442422C00002084
:101240000070004010B5401EB0F1807F01D3012036
:1012500010BD4FF0E02460610F21601701F025F808
:101260000020A06107202061002010BD704770475A
:1012700070B590F83C20012A26D0012480F83C402B
:10128000022280F83D2003685A689D6822F07006AB
:101290000A6832435A600D4B02689A4208D0B2F194
:1012A000804F05D00A4B9A4202D00A4B9A4204D191
:1012B000496825F080031943916080F83D40002182
:1012C00080F83C10084670BD022070BD002C014023
:1012D000000400400008004010B5040003D094F85A
:1012E0003D0010B107E0012010BD002084F83C0053
:1012F000204600F01FF8022084F83D00211D2068E0
:1013000000F02EFE012084F8460084F83E0084F8A8
:101310003F0084F8400084F8410084F8420084F8DB
:10132000430084F8440084F8450084F83D00002020
:1013300010BD000008B50068B0F1804F12D10A4816
:10134000C16941F00101C161C069002200F00100E2
:10135000009011461C20FFF7D7FCBDE808401C2078
:10136000FFF7C4BC08BD00000010024090F83D101B
:10137000012901D001207047022180F83D10016849
:10138000CA6842F00102CA6000680B49884208D06E
:10139000B0F1804F05D00949884202D008498842FF
:1013A00004D1816801F00701062903D0016841F0EA
:1013B0000101016000207047002C01400004004042
:1013C0000008004070B5044690F83C000025012854
:1013D00017D0012684F83C60022084F83D00206884
:1013E000826822F0770222F47F42826008685028E7
:1013F00038D00DDC20284FD005DC90B3102811D157
:101400004AE0022070BD302846D040280AD13BE097
:1014100060282FD070280DD0B0F5805F03D0B0F5D4
:10142000005F12D0012584F83D60002084F83C0064
:10143000284670BDCB68D1E90121206800F0CCFDC1
:101440002068816841F0770109E0CB68D1E901218A
:10145000206800F0C1FD2068816841F4804181600E
:10146000E1E719E0CA684968206800F0C7FD50212B
:10147000206806E0CA684968206800F0D0FD602155
:10148000206800F0B3FDCEE7CA684968206800F024
:10149000B5FD40212068F4E7226801461046F0E7D8
:1014A00070472DE9F04104460068C66805694FF0B1
:1014B0000007A90713D5B10711D5F91E0161012055
:1014C0002077206880698007204602D0FFF7E8FF78
:1014D00004E000F07EF8204600F07CF827776807EB
:1014E00016D5700714D521686FF00400086102203A
:1014F00020772068806910F4407F204602D0FFF7F3
:10150000CFFF04E000F065F8204600F063F827778D
:10151000280715D5300713D521686FF0080008613A
:10152000042020772068C0698007204602D0FFF79A
:10153000B7FF04E000F04DF8204600F04BF82777A5
:10154000E80616D5F00614D521686FF01000086182
:10155000082020772068C06910F4407F204602D020
:10156000FFF79EFF04E000F034F8204600F032F868
:101570002777E80708D0F00706D021686FF0010050
:101580000861204600F028F8280608D5300606D560
:1015900021686FF0800008612046FFF767FE68064B
:1015A00008D5700606D521686FF040000861204616
:1015B00000F028F8A8060AD5B00608D521686FF013
:1015C000200008612046BDE8F041FFF750BEBDE8AD
:1015D000F081704770470000074910B588420AD172
:1015E00002210648FFF71AFB05494A78012A01D172
:1015F00000B90A70487010BD5C000020000C01406A
:10160000300000207047704770470000F8B501684F
:1016100004460868CA684B6910F00F0F4FF00005C8
:1016200059D003F0010602F49077374365D0C10723
:1016300005D0D10503D5616C41F00101616441071A
:1016400005D5D90703D0616C41F0020161648107BF
:1016500005D5D90703D0616C41F00401616401072D
:1016600007D502F02001314303D0616C41F008013D
:101670006164616C00293AD0800604D5900602D5D9
:10168000204600F00DFD20684069616CC0F38010B9
:10169000090700D460B3204600F0DBFC20684069F5
:1016A000400621D52068143050E8001F21F0400189
:1016B00040E80012002AF5D1E06BA8B16D49416302
:1016C000E06BFFF76FF9002811D0E06B416B01B0C0
:1016D000BDE8F040084783060FD593060DD5204698
:1016E000BDE8F84000F0DCBC2046FFF78DFFF8BDF8
:1016F0002046FFF789FF6564F8BD266B2023012E85
:101700007CD1C6067AD5D60678D508684868009098
:1017100048694FF00206400640D5E16B0868406812
:101720000004000CE8D0A28D8242E5D9E0858869EA
:1017300020282DD020680C3050E8001F21F4807143
:1017400040E80012002AF5D12068143050E8001F4C
:1017500021F0010140E80012002AF5D12068143080
:1017600050E8001F21F0400140E80012002AF5D1A6
:1017700084F84230256320680C3050E8001F21F0C7
:10178000100140E80012002AF5D1E06BFFF7E7F8FE
:101790006663A08DE18D401A81B22AE0A08DE18DB3
:1017A000401A81B2E08D0028A6D00029A4D022687A
:1017B0000C3252E8000F20F4907042E80007002F2E
:1017C000F5D12068143050E8002F22F0010240E8E3
:1017D0000027002FF5D184F84230256320680C30B3
:1017E00050E8002F22F0100240E80023002BF5D132
:1017F00066632046FFF707FFF8BDFFE705062BD518
:10180000150629D594F841002128F5D1A068B0F536
:10181000805F01D12069B0B1206A411C216221683A
:1018200000784860E08C401E0004000CE084E3D1A6
:101830002068C16821F08001C1602068C16841F062
:101840004001C160D8E7206A0088C0F30800486002
:10185000206A801C2062E5E74006CDD55006CBD536
:10186000CA68204622F04002CA6084F8413000F085
:10187000C6F8C1E74320000870B5040004D094F80E
:101880004100002510B106E0012070BD84F84050F1
:10189000204600F023F8242084F841002068C16825
:1018A00021F40051C160204600F05CFC2068016911
:1018B00021F4904101612068416921F02A014161D0
:1018C0002068C16841F40051C1606564202084F83B
:1018D000410084F842006563002070BD30B585B0DA
:1018E00000240094019402940394006818498842EB
:1018F0002CD11848816941F480418161816901F4EA
:1019000080410491816941F0040181618069124D37
:1019100000F0040004904FF4007000900220019049
:101920000320039069462846FFF788F82815CDE97B
:101930000004694628460294FFF780F80022114609
:101940002520FFF7E1F92520FFF7D0F905B030BDDC
:1019500000380140001002400008014070472DE9A6
:10196000F843044690F84100984616460D46202854
:1019700002D00220BDE8F88385B17EB1002060640A
:10198000212084F84100FFF753F9A6848146E684BC
:10199000A0682027B0F5805F02D003E00120E9E7CE
:1019A000206910B12E4600250EE000260CE08021B3
:1019B000204600F033FCA8B9C6B116F8010B216827
:1019C0004860E08C401EE084E08C4B464FF0000203
:1019D000CDF800800028EAD14FF04001204600F009
:1019E0001DFC40B184F841700320C3E735F8020BB9
:1019F000C0F30800E3E784F841700020BAE77047BD
:101A0000FEE700000249002208780A7070470000D3
:101A1000300000200148FFF7A9BC00005C00002056
:101A20000F4810B50D4901601221416000214FF4AB
:101A300020228160C0E903124FF440124261017616
:101A400041768176C17601774177FEF784FE0028E2
:101A500003D0BDE81040FEF71CBC10BD0064004080
:101A60003400002070B586B000241D480094019415
:101A700002940394816941F020018161816901F040
:101A800020010491816941F008018161816901F0BF
:101A900008010491816941F0040181618069114E5E
:101AA00000F004004FF440750490012229463046AE
:101AB000FFF7B9F80220CDE9000401200290694641
:101AC0003046FEF7BBFF11200095CDE9010403204D
:101AD000039069463046FEF7B1FF06B070BD0000C6
:101AE00000100240000C014010B586B000241648DA
:101AF000009401940294039404944FF0804105945F
:101B0000016044F62061C0E901140321C0E9031417
:101B10008461FFF7E1FB08B1FEF7BBFB4FF4805097
:101B2000009069460848FFF74DFC08B1FEF7B1FB8D
:101B3000049404A904480594FFF79AFB002801D0F7
:101B4000FEF7A7FB06B010BD5C0000200C4810B5E6
:101B50000A4901604FF4E1314160002181600C22AB
:101B6000C160C0E904128161C161FFF785FE0028F0
:101B700003D0BDE81040FEF78CBB10BD003801401B
:101B8000A4000020FEE7FEE770B5002400212046F7
:101B900000F0DDF80025002000F085F96D1CEDB2A5
:101BA000802DF8D3641CE4B2082CEFD370BD000084
:101BB00010B5064C012211022046FFF734F82046EA
:101BC0000122BDE810405102FFF72DB8000C014082
:101BD0002DE9F047144E002407464FF080084FF4DB
:101BE0000079B51528FA04F23A4049463046FFF725
:101BF0001AF8012229463046FFF715F80022294637
:101C00003046FFF710F8641CE4B2082CEAD3012236
:101C100029463046FFF707F829463046BDE8F04729
:101C20000022FFF700B80000000C014070B501224F
:101C30000B4D540221462846FEF7F5FF01221602FD
:101C400031462846FEF7EFFF002221462846FEF7E0
:101C5000EAFF31462846BDE870400022FEF7E3BFA8
:101C6000000C014070B50A4D4FF40074002221466B
:101C70002846FEF7D8FF012211022846FEF7D3FFBF
:101C800021462846BDE870400122FEF7CCBF000087
:101C9000000C014010B500204FF47A720021491C5D
:101CA0009142FCD3401C9042F8D3FFF781FFAE2055
:101CB00000F0E8F8D52000F0E5F8802000F0E2F828
:101CC000A82000F0DFF83F2000F0DCF8D32000F07F
:101CD000D9F8002000F0D6F8402000F0D3F8A12079
:101CE00000F0D0F8C82000F0CDF8DA2000F0CAF8F3
:101CF000122000F0C7F8812000F0C4F8CF2000F0D7
:101D0000C1F8D92000F0BEF8F12000F0BBF8DB20CC
:101D100000F0B8F8302000F0B5F8A42000F0B2F8D8
:101D2000A62000F0AFF88D2000F0ACF8142000F0F1
:101D3000A9F8AF2000F0A6F8BDE81040FFF724BFD7
:101D40000246012000E05043491EFCD2704710B506
:101D50000C4640F0B00000F095F8102040EA141056
:101D600000F090F804F00F00BDE8104000F08AB8D1
:101D70002DE9F0410746CE004000083E801E154682
:101D80004FF0FF38F1B2C0B2FFF7E1FF1148002475
:101D900000EB05152819A0F5805090F8000E00F012
:101DA00082F8641CE4B2082CF4D308EB4700F1B2CB
:101DB000C0B2FFF7CCFF00242819A0F5805090F89E
:101DC000080E00F070F8641CE4B2082CF4D3BDE8EF
:101DD000F0810000082500082DE9F0411D46174656
:101DE0000E468046002415E0291B1020491EFFF7EF
:101DF000A7FFB7FBF0F000F00F0206EB0400C1B242
:101E00000A2A404601D2303200E03732FFF7B0FFF5
:101E1000641CE4B2AC42E7D3BDE8F0812DE9F047A1
:101E200000241D461646884681460A2713E0291BD2
:101E30000A20491EFFF784FFB6FBF0F0B0FBF7F174
:101E400007FB110208EB0400C1B248463032FFF72D
:101E50008FFF641CE4B2AC42E9D3BDE8F0872DE902
:101E6000F04115460E460746002406E03019C1B27F
:101E70003846FFF77DFF641CE4B22A5D002AF5D1E5
:101E8000BDE8F08110B50446FFF7D0FE7820FFF7DB
:101E90009FFE0020FFF79CFE2046FFF799FEBDE85D
:101EA0001040FFF7DFBE10B50446FFF7BFFE7820F5
:101EB000FFF78EFE4020FFF78BFE2046FFF788FEDF
:101EC000BDE81040FFF7CEBE704770471CB500F06C
:101ED000F1FA009004480A2308220068019069463C
:101EE0000248FFF73CFD1CBDDA240008A4000020D6
:101EF000FEF7A4BE30B58FB028216846FEF764F91E
:101F000014210AA8FEF760F901210804CDE90010A8
:101F10000024029402250491CDE907504FF4E0100B
:101F200009906846FEF7FEFF08B172B6FEE70F2083
:101F3000CDE90A054FF48060CDE90C4002210AA8E2
:101F40000E94FEF713FF002801D072B6FEE70FB023
:101F500030BD70470148FFF7A4BA00005C000020C4
:101F6000F0B50268194B1A4C1A4D4FF08047984251
:101F700005D0B84203D0A04201D0A84203D122F03C
:101F800070064A683243984205D0B84203D0A04256
:101F900001D0A84203D122F44074CA6822434C699C
:101FA00022F08002224302608A68C2620A6882626A
:101FB000984201D109690163012141610169C907A1
:101FC00003D0016921F001010161F0BD002C014045
:101FD000000400400008004010B5846842EA032273
:101FE00024F47F440A432243826010BD826822F0B9
:101FF00070020A4342F007018160704710B5036A1E
:10200000046A24F001040462846924F0F00444EAC0
:10201000021423F00A020A438461026210BD10B563
:10202000036A046A24F010040462846923F0A003A4
:1020300024F4704444EA023243EA011182610162ED
:1020400010BD10B5406A0021C185C184FFF7DCFADC
:1020500010BD01680C3151E8002F22F4907241E864
:102060000023002BF5D10168143151E8002F22F034
:10207000010241E80023002BF5D1016B012909D1B0
:1020800001680C3151E8002F22F0100241E80023D2
:10209000002BF5D1202180F8421000210163704708
:1020A00008B590F84210222901D0022008BD8268AC
:1020B0004FF480539A4201D1016921B1816A9A4259
:1020C0001BD04AB10AE00268816A5268C2F3080272
:1020D0000A80816A891C08E0026972B1026852684C
:1020E00002F07F020A70816A491C8162C18D491E1B
:1020F0000904090CC18503D01BE002685268F1E7AE
:102100000168CA6822F02002CA600168CA6822F425
:102110008072CA6001684A6922F001024A61202186
:1021200080F8421000214163026B012A03D0FFF7BF
:1021300015FC002008BD016301680C3151E8002F37
:1021400022F0100241E80023002BF5D101680A6853
:10215000D20602D50A6849680091818DFFF753FACB
:10216000E7E7000070B5044600680169E26821F401
:102170004051114301612169A06808436169084326
:102180002168CA6841F20C639A430243CA6020681E
:102190004169A26921F44071114341611E492068DF
:1021A000884202D1FEF788FE01E0FEF775FE00EBE3
:1021B000C00101EB0012606864218000B2FBF0F303
:1021C000B3FBF1F36FF018067343B2FBF0F5B2FB0B
:1021D000F0F605EB8305322303EB0515B5FBF1F5AE
:1021E000B6FBF1F605F0F00505EB0615B2FBF0F6CF
:1021F000B2FBF0F0B0FBF1F06FF01802504306EBC9
:10220000800003EB0010B0FBF1F0216800F00F003C
:102210002844886070BD0000003801402DE9F84373
:10222000984617460D460446089E24E0701C22D0AE
:10223000FEF7FEFCA0EB0800B0421AD8CEB1206831
:10224000C168490717D5802D15D0402D13D00168DE
:10225000C94309070FD40168002540680090204653
:10226000FFF7F7FE0820606484F840500120BDE8C5
:10227000F8830320FBE72068006835EA000004D0FB
:102280000020B842D2D00020F1E70120F9E7000099
:102290000148FFF7BBB90000A40000200148FEF789
:1022A0005CB9000034000020FEE70907090E002891
:1022B00004DB00F1E02080F80014704700F00F000C
:1022C00000F1E02080F8141D70470000FEF7BEFC0E
:1022D000FFF710FEFFF7C6FBFFF7A2FBFFF704FCBA
:1022E000FFF734FCFFF7D6FC00F082F8FFF792FB13
:1022F000012133A20846FFF7B2FD334C0323062128
:102300000120A268FFF768FD30A20A210120FFF733
:10231000A6FD30A201210220FFF7A1FD2FA201217D
:102320000320FFF79CFD30A201210420FFF797FD59
:1023300000F092F880B3244A1832A2F1170101F19B
:102340000B0000F06FF8032306210220E268FFF77C
:1023500043FD012362780B210320FFF73DFD1A4D59
:102360000223183506212A780420FFF735FD6A7804
:10237000022309210420FFF72FFDAA7802230C2154
:102380000420FFF729FDEA7802230F210420FFF73C
:1023900023FD2878FFF79AFDFFF734FB012808D1C9
:1023A0006068094A401C606010322178A06800F023
:1023B0005FF802230E2101206268FFF72FFDB7E7C7
:1023C000547849443A000000000000204B65793AF7
:1023D00000000000527849443A00000052786C65D1
:1023E0006E6774683A000000446174613A0000004E
:1023F00000B58BB00020012101900290089105905A
:102400000490CDE9060100900390099069460448C4
:10241000FDF7A0FF0248FEF76FFA0BB000BD000009
:102420003400002030B587B00C46054613466A4696
:1024300000210848FEF717F8029838B10198286083
:10244000039828B10020207007B030BD0098F6E74F
:102450000498F8E73400002010B500210348FDF788
:10246000F1FF002800D0012010BD00003400002042
:1024700010B588B00024CDE900040294CDE90341F1
:1024800006AB69460948FDF706FF0848069B4FF072
:102490008061074A0068994002E0641C944202D8B7
:1024A00083680B42F9D008B010BD00003400002052
:1024B000A0860100B0FA80F310FA03F2C3F19D0385
:1024C0000AD0D90501EB1220530638BF704700F13E
:1024D000010008BF20F0010070470000807F01026A
:1024E00002030405060708090A0B0C0D0E0F101055
:1024F00000000000000000000102030406070809B4
:1025000000000000010203040000000000000000C1
:102510000000000000000000000000F800000000C3
:10252000000000333000000000100C06100C060004
:10253000000000000000000040C07840C07840006B
:10254000043F04043F040400007088FC08300000CD
:10255000001820FF211E0000F008F000E018000025
:1025600000211C031E211E0000F0088870000000DE
:102570001E2123241927211010160E000000000030
:102580000000000000000000000000E0180402004D
:10259000000000071820400000020418E0000000BE
:1025A0000040201807000000404080F080404000BC
:1025B0000202010F01020200000000F00000000012
:1025C0000101011F010101000000000000000000E6
:1025D00080B070000000000000000000000000005B
:1025E00000010101010101010000000000000000E4
:1025F000003030000000000000000000806018047F
:10260000006018060100000000E010080810E0005B
:10261000000F102020100F00001010F80000000024
:102620000020203F2020000000700808088870006B
:1026300000302824222130000030088888483000EB
:102640000018202020110E000000C02010F800000B
:1026500000070424243F240000F8088888080800A4
:102660000019212020110E0000E0108888180000B9
:10267000000F112020110E0000380808C83808008B
:102680000000003F0000000000708808088870000B
:10269000001C222121221C0000E010080810E0008C
:1026A0000000312222110F00000000C0C000000015
:1026B000000000303000000000000080000000003A
:1026C0000000806000000000000080402010080032
:1026D00000010204081020004040404040404000FB
:1026E00004040404040404000008102040800000D6
:1026F0000020100804020100007048080808F000DB
:102700000000003036010000C030C828E810E000AA
:102710000718272423140B000000C038E000000035
:10272000203C23020227382008F88888887000009F
:10273000203F202020110E00C03008080808380073
:10274000071820202010080008F808080810E000EA
:10275000203F202020100F0008F88888E80810008B
:10276000203F20202320180008F88888E80810005F
:10277000203F200003000000C03008080838000097
:1027800007182020221E020008F808000008F80898
:10279000203F210101213F20000808F8080800001F
:1027A0000020203F2020000000000808F808080052
:1027B000C08080807F00000008F888C028180800CA
:1027C000203F20012638200008F808000000000003
:1027D000203F20202020300008F8F800F8F80800FA
:1027E000203F003F003F200008F830C00008F808F4
:1027F000203F200007183F00E01008080810E00004
:102800000F10202020100F0008F808080808F0001A
:10281000203F210101010000E01008080810E0003D
:102820000F18242438504F0008F8888888887000D2
:10283000203F2000030C3020007088080808380072
:102840000038202121221C00180808F80808180068
:102850000000203F2000000008F808000008F808E9
:10286000001F202020201F000878880000C838089A
:10287000000007380E010000F80800F80008F80012
:10288000033C0700073C03000818688080681808AC
:1028900020302C03032C30200838C800C83808002A
:1028A0000000203F2000000010080808C838080079
:1028B0002038262120201800000000FE020202001D
:1028C0000000007F40404000000C30C000000000CD
:1028D000000000010638C00000020202FE000000F5
:1028E000004040407F00000000000402020204009B
:1028F00000000000000000000000000000000000D8
:1029000080808080808080800002020400000000BF
:1029100000000000000000000000808080800000B7
:102920000019242222223F2008F8008080000000A5
:10293000003F112020110E00000000808080000068
:10294000000E112020201100000000808088F80077
:10295000000E112020103F200000808080800000A9
:10296000001F222222221300008080F0888888180D
:102970000020203F20200000000080808080800018
:10298000006B94949493600008F8008080800000AD
:10299000203F210000203F20008098980000000088
:1029A0000020203F202000000000008098980000B8
:1029B00000C08080807F000008F8000080808000D8
:1029C000203F24022D302000000808F800000000FD
:1029D0000020203F202000008080808080808000B8
:1029E000203F20003F20003F80800080808000004A
:1029F000203F210000203F200000808080800000D8
:102A0000001F202020201F00808000808000000008
:102A100080FFA12020110E00000000808080800037
:102A2000000E112020A0FF80808080008080800028
:102A300020203F2120000100000080808080800055
:102A40000033242424241900008080E080800000CA
:102A50000000001F20200000808000000080800017
:102A6000001F202020103F20808080000080808078
:102A700000010E3008060100808000800080808008
:102A80000F300C030C300F0000808000808080002D
:102A90000020312E0E312000808080000080808058
:102AA00080818E7018060100008080808080800008
:102AB0000021302C2221300000000000807C020226
:102AC00000000000003F404000000000FF00000048
:102AD00000000000FF0000000002027C80000000F7
:102AE0000040403F00000000000601010202040413
:102AF0000000000000000000182B0008000000206B
:102B000034000000280100084C2B0008340000208D
:102B10001C07000044010008040000000000000041
:102B20005505000000000000010203040000000041
:102B30000000000000000000010000001000000084
:0C2B40000000000000127A0000010000FC
:04000005080000ED02
:00000001FF
